:020000040800F2
:10000000A06D00205D020008D73A00088135000885
:10001000D53A00085F080008655E0008000000008F
:100020000000000000000000000000009D0100082A
:10003000850A000800000000F9010008A53C00083E
:1000400077020008770200087702000877020008AC
:10005000770200087702000877020008770200089C
:10006000770200087702000877020008770200088C
:10007000CD0900087702000877020008770200081F
:10008000770200087702000877020008770200086C
:10009000610800087702000877020008770200086C
:1000A000770200087702000877020008770200084C
:1000B000770200087702000877020008770200083C
:1000C000770200087702000877020008770200082C
:1000D0007702000861420008770200086D420008BC
:1000E000770200087702000877020008770200080C
:1000F00077020008753D00087702000877020008C3
:1001000077020008770200087702000877020008EB
:1001100077020008770200087702000877020008DB
:1001200077020008D9090008E509000877020008ED
:1001300077020008770200087702000877020008BB
:100140006D0800087702000877020008D93A000815
:1001500077020008F1090008FD090008794200084B
:10016000770200087702000877020008770200088B
:1001700077020008770200087702000800000000FC
:100180007702000877020008DFF80CD000F02AFBA5
:10019000004800479D6B0008A06D00202C4B19689B
:1001A0000868B0E8F04F80F30988BFF36F8F4FF015
:1001B000000080F3118870470000000008480068C4
:1001C000006880F308884FF0000080F3148862B65E
:1001D00061B6BFF34F8FBFF36F8F00DF00BF00BF6B
:1001E00008ED00E0DFF80C00016841F470010160E7
:1001F000704700BF88ED00E0EFF30980BFF36F8F19
:10020000134B1A681EF0100F08BF20ED108A20E96A
:10021000F04F106009B44FF0500080F31188BFF325
:100220004F8FBFF36F8F07F083F84FF0000080F31C
:10023000118809BC19680868B0E8F04F1EF0100F6B
:1002400008BFB0EC108A80F30988BFF36F8F704746
:1002500020000020EFF3058070470000064880472B
:1002600006480047FEE7FEE7FEE7FEE7FEE7FEE79B
:10027000FEE7FEE7FEE7FEE7653D000889010008AE
:100280002DE9F05F0546002092469B4688460646CB
:10029000814640241BE0284641464746224600F05E
:1002A000F1F953465A46C01A914110D311461846E7
:1002B000224600F0D8F92D1A67EB01084F46224676
:1002C0000120002100F0CFF917EB00094E41201E5C
:1002D000A4F10104DFDC484631462A464346BDE826
:1002E000F09F40EA01039B0703D009E008C9121FF1
:1002F00008C0042AFAD203E011F8013B00F8013BE0
:10030000521EF9D27047D2B201E000F8012B491E0B
:10031000FBD270470022F6E710B513460A460446A2
:100320001946FFF7F0FF204610BD2DE9FE4F80462D
:1003300081EA0300C00F0C46009021F0004123F039
:100340000045B8EB0200A94105D24046214690463F
:100350001C460B46024623F00040104347D0270DB1
:10036000C7F30A00C3F30A510290401A01904028D3
:100370006BDAC3F3130040F4801B0098924620B15F
:100380000023D2EB030A63EB0B0B01985946C0F133
:100390004002504600F067F906460D465046594661
:1003A000019A00F07FF910EB08006141002487EA10
:1003B000115284EAE7731A4340D0009A62B3019A5B
:1003C000012A4FEA075215DC001B61EB02014FF0D6
:1003D000004202EA0752CDE90042001C41F58011BB
:1003E00032462B4600F07FF903B0BDE8F08F40465F
:1003F0002146F9E7001B61EB0201001C41F5801367
:1004000000185B412018A2F5001747EB030140EAF2
:10041000D570B6196D4111E06D084FEA360645EA10
:10042000C0754FEA0752001B61EB0201001C41F549
:10043000801149084FEA30000019514132462B46DD
:1004400003B0BDE8F04F00F03FB900980122400032
:100450000023D0EB020263EBE073009821464FEAE1
:10046000E074B8EB000061EB0401E9E783F00043BE
:100470005BE781F0004158E72DE9FE4F81EA030474
:1004800004F0004421F0004100944FF0000B23F0F1
:10049000004350EA01045ED052EA03045BD0C3F388
:1004A0000A54C1F30A552C44A4F2F3340194A0FB7E
:1004B0000254C1F3130141F48011C3F3130343F455
:1004C000801301FB024400FB034E840A970A44EAAE
:1004D000815447EA8357A4FB076802958D0A05FB00
:1004E00007854FEA932C04FB0C542705029D4FEA25
:1004F000065847EA1637B5EB08056EEB070C870E72
:10050000920E47EA811742EA8312A7FB0201B6EB7B
:100510000B0164EB00042B0D43EA0C335E1844EB33
:100520001C50DA465146E7FB0201C5F313044FEABB
:100530000B3343EA14534FEA0432019C43EA0603A7
:10054000A4F10C040294009CCDE900B400F0CBF8B7
:1005500003B0BDE8F08F00200146F9E72DE9F04D2A
:1005600081EA030404F0004B21F0004514464FF0EB
:10057000000A23F0004150EA050220D054EA0102AB
:100580001DD0C5F30A570246C5F31303C1F3130088
:10059000C1F30A5640F4801543F48013A7EB060814
:1005A000101BD64608F2FD3873EB050002D308F1A4
:1005B000010801E092185B41B8F1000F03DA002056
:1005C0000146BDE8F08D00204FF4801106468446B8
:1005D0000EE0171B73EB050705D3121B63EB050336
:1005E00006434CEA010C49084FEA300092185B417F
:1005F00050EA0107EDD152EA030012D082EA04006A
:1006000083EA0501084305D0101BAB4106D2012245
:10061000002306E000224FF0004302E06FF00102E9
:1006200053101AEB06004CEB085110EB0A0041EB9B
:100630000B01BDE8F04D00F047B830B50B46014660
:1006400000202022012409E021FA02F59D4205D371
:1006500003FA02F5491B04FA02F52844151EA2F11B
:100660000102F1DC30BD202A04DB203A00FA02F15D
:10067000002070479140C2F1200320FA03F3194390
:1006800090407047202A04DB203A21FA02F0002132
:10069000704721FA02F3D040C2F120029140084392
:1006A00019467047202A06DBCB17203A41FA02F0A0
:1006B00043EAE07306E041FA02F3D040C2F12002BF
:1006C000914008431946704710B5141E73F1000499
:1006D00008DA401C41F1000192185B411A4301D134
:1006E00020F0010010BD2DE9F04D92469B4611B15E
:1006F000B1FA81F202E0B0FA80F220329046FFF7C0
:10070000B2FF04460F4640EA0A0041EA0B01534695
:100710005A46084313D0114653EA010019D0C8F1D4
:1007200040025046FFF7AEFF05460E46504659467A
:100730004246FFF798FF084305D0012004E0204619
:100740003946BDE8F08D0020054346EAE0762C43AB
:1007500037430A986305E40AA0EB08000022FD0A6B
:1007600044EA47540A3002D500200146E9E7010572
:1007700010196941DDE9084500196941BDE8F04DEE
:10078000A2E7C1F30A52C1F3130140F2FF3341F46F
:1007900080119A4202DA00200146704740F233434A
:1007A0009A42A2F2334202DC5242FFF76BBFFFF7DC
:1007B0005ABF000030B5041E71F1000404DB4FF095
:1007C0000044404264EB0101141E73F1000405DB98
:1007D0001C464FF00043524263EB0403994208BFAA
:1007E000904230BD064C074D06E0E06840F0010342
:1007F00094E8070098471034AC42F6D3FFF7C8FCE2
:10080000087A0008287A000870B58C1810F8015B87
:1008100015F0070301D110F8013B2A1106D110F899
:10082000012B03E010F8016B01F8016B5B1EF9D19D
:100830002B0705D40023521E0DD401F8013BFAE723
:1008400010F8013BCB1A921C03E013F8015B01F88E
:10085000015B521EF9D5A142D8D3002070BDFEE73E
:10086000014800F0ACB90000DC030020014800F0B2
:10087000A6B9000004040020002070470020704743
:1008800010B500220449054803F0DCFE0449034882
:1008900003F0CBFE002010BD70560020CC48002095
:1008A000704E002010B50A460968C8290BD20A4BC1
:1008B00019800021094B03E0445C5C54491C89B257
:1008C00014688C42F8D80146054803F0AEFE04488F
:1008D00003F084FE002010BDE2000020A84D00209F
:1008E000CC480020002070472DE9F0410E46074615
:1008F00000F072FE05461348D0F8BC42D4F814024A
:1009000020B100F069FE401B0A2812D83246394651
:100910000C4803F097FE0B4803F00EFF064600F06C
:100920005BFE054608E000BF00F056FE401B0A28AB
:1009300002D90120BDE8F081D4F814020028F3D1D7
:100940003046F7E7CC4800200A88C2F30A02A2F535
:10095000806202804A788B78D20842EA4312C2F35E
:100960000A02A2F5806242808A78CB78920942EA34
:1009700083020B7942EA8322C2F30A02A2F5806263
:1009800082800A794B79520842EAC312C2F30A0202
:10099000A2F58062C2804A79920982724A79C2F3D2
:1009A0000112C272CA8882810A89C2814A8902827E
:1009B0000A7B82744A7BC274CA898282098AC1F323
:1009C0000A01A1F58061018170470000014800F033
:1009D000B9BB0000E8060020014800F0B3BB0000EE
:1009E00048070020014800F0ADBB000028060020A9
:1009F000014800F0A7BB0000A8070020014800F054
:100A0000A1BB00008806002001681823CAB2103A72
:100A1000B2FBF3F2054B6FF30901032A9B5CC3653C
:100A200000D9091D8165084670470000DC76000882
:100A300010B5014600208B698A6A4FF0C07453B12B
:100A4000B3F5005F15D072B1012A0CD0022A0AD08A
:100A5000032A09D104E01AB1012A06D0022A03D1DF
:100A6000C96AC90100D5012010BDC96AA142FAD0E6
:100A700010BD002AF7D0012AF2D0022AF3D0032AAF
:100A8000F3D010BD704772B6FEE7000010B558B144
:100A9000084C491E0BD310F8013B5340DBB234F82D
:100AA000133083EA1222F4E74FF6FF7010BD1046B0
:100AB00010BD0000FC77000810B5054C04E000BF35
:100AC00010F8013B5340E25C491EF9D2104610BDBC
:100AD000FC760008704730B590F82040012C05D016
:100AE000022C03D0416A41F480215DE004680029B2
:100AF00055D02469A40754D04FF4D874056804EB8A
:100B000001142D5915F00405956005682D594ED036
:100B1000ED08556005682C5904F00204D4604FF4C8
:100B2000DA74056804EB01142D5905F00F05156101
:100B300005682D59C5F30725956105682C59240CC6
:100B400054614FF4DC72046802EB0112A4581C706B
:100B50000468A458240A5C700468A458240C9C708F
:100B60000468A258120EDA704FF4DE72046802EBC9
:100B70000112A4581C710468A458240A5C7104680A
:100B8000A458240C9C710468A258120EDA710068F3
:100B900081B1016941F020010161002030BDE468AC
:100BA000A8E7416A41F400114162012030BD6D0D9A
:100BB0001560AFE7C16841F02001C160EDE72DE9A4
:100BC000F05F0546006800244669D0F80490876805
:100BD000D0F80CB0D0F810A0D0F81880F10748D0A9
:100BE000F90714D001218160B80703D5284600F029
:100BF00021FA0CE0780702D54FF4006407E03807CB
:100C000002D54FF4805402E0284600F012FAF805AD
:100C100016D529684FF480708860B80503D528463A
:100C200000F00AFA0CE0780502D544F4005407E01D
:100C3000380502D544F4804402E0284600F0FBF970
:100C4000F80316D529684FF480308860B80303D5BF
:100C5000284600F0F3F90CE0780302D544F4004490
:100C600007E0380302D544F4803402E0284600F05F
:100C7000E4F9300707D55FEACB6004D52968102076
:100C800044F40074C86070074FF0080707D55FEAA6
:100C90000B7004D52868C760284600F099F9B007A2
:100CA00006D52868C068800702D0284600F092F96F
:100CB000700607D55FEACA6004D52968102044F49D
:100CC00080640861B00607D55FEA0A7004D5286819
:100CD0000761284600F0AAF9F00606D528680069E1
:100CE000800702D0284600F0A2F9B00308D55FEAD9
:100CF000C96005D5296810204860284600F098F999
:100D0000F00307D55FEA097004D5286847602846D4
:100D100000F095F9300446D55FEA497040D5F005FA
:100D200004D55FEAC87001D044F00104B00504D5D1
:100D30005FEA887001D544F00204700504D55FEACB
:100D4000487001D544F00404300529D518F0700F1F
:100D500026D008F07000402815D006DC102809D0F5
:100D600020280AD0302816D10AE050280ED060285A
:100D700011D10EE044F008040DE044F010040AE044
:100D800044F0200407E044F0400404E044F0800410
:100D900001E044F480742868816921F07001816168
:100DA000296804204860002C05D0686A20436862E6
:100DB0002846FFF78FFEBDE8F09F70B5040003D012
:100DC00094F8200010B104E0012070BD204600F02E
:100DD00081F82068016841F00101016000F0FCFB2E
:100DE0000546052604E000F0F7FB401B0A2811D851
:100DF00020684068C007F6D02068016821F0020131
:100E0000016000F0E9FB05460BE000F0E5FB401B4C
:100E10000A2806D9606A40F40030606284F82060D5
:100E2000D2E7206840688007EFD4207E0128206840
:100E300001683DD021F080010160607E01282068BA
:100E4000016838D021F040010160A07E01282068AF
:100E5000016833D021F020010160E07E0128206884
:100E600001682ED041F010010160207F0128206828
:100E7000016829D021F008010160607F0128206805
:100E8000016824D021F004010160D4E90201084383
:100E9000D4E90412114308436168491E08432168DC
:100EA000C86100206062012084F82000002070BD2D
:100EB00041F08001C0E741F04001C5E741F0200169
:100EC000CAE721F01001CFE741F00801D4E741F073
:100ED0000401D9E7F0B587B0044614216846FFF74E
:100EE00019FA364B3648DFF8D0E01968D4F800C05C
:100EF000334A03250226092710300024491CF445F3
:100F000022D11960012907D1016841F00071016007
:100F1000006800F000700590106840F00800106054
:100F20001068CDE9005600F00800CDE9047069466C
:100F30002448CDE9024500F051FA00220521142091
:100F400000F0E8FB142032E0DFF87CE0F44530D11B
:100F5000D0F800C04CF0806CC0F800C0D0F800C0E1
:100F600001290CF0806CCDF814C0196007D101681C
:100F700041F000710160006800F000700590106899
:100F800040F002001060106802AB00F00200059013
:100F90006020CDE9000683E8B00069460B4800F008
:100FA0001DFA00220521402000F0B4FB402000F093
:100FB000A3FB07B0F0BD0000006400400400002067
:100FC00030380240000C024000680040000402403B
:100FD0007047000010B58AB004466B4602AA002193
:100FE000FFF779FD0F492068884214D10298012843
:100FF00008D002280AD003280FD004280BD1694654
:10100000094806E008486946303802E00648694663
:10101000203802F07FFA0AB010BD03486946103844
:10102000F7E7000000640040BC48002070477047AC
:1010300070477047704770477047704770477047F8
:1010400010B5040002D0607910B106E0012010BD97
:1010500000202071204600F005F80120607100207A
:1010600010BD000008B500680649884208D106484E
:10107000016841F480510160006800F480500090E4
:1010800008BD000000300240303802402DE9F04138
:101090000446876D00F0A0FA064694F83500002556
:1010A000022806D08020606584F834500120BDE815
:1010B000F0812068016821F0160101602068416913
:1010C00021F080014161206C08B9A06C20B120683A
:1010D000016821F0080101602068016821F0010128
:1010E00001600CE000F078FA801B052807D9202069
:1010F0006065032084F8350084F83450D7E7206811
:101100000068C007EED194F85C103F208840B860BA
:10111000012084F8350084F834500020C7E790F8A7
:101120003510022903D08021416501207047052137
:1011300080F835100068016821F00101016000208D
:10114000704700002DE9F84304464FF00009CDF840
:10115000009063484FF41651A56D0068B0FBF1F79D
:101160002E6894F85C10082000FA01F131420FD08B
:1011700021680A6852070BD50A6822F004020A6047
:1011800094F85C108840A860606D40F001006065D4
:1011900094F85C104FF0010808FA01F0304208D0D2
:1011A00021684969090604D5A860606D40F0020015
:1011B000606594F85C1004208840304208D02168B3
:1011C0000968890704D5A860606D40F00400606577
:1011D00094F85C1010208840304218D021680968CB
:1011E000090714D5A86020680168490304D5006880
:1011F000000308D5A16C07E00168C90503D40168A4
:1012000021F008010160216C09B12046884794F85B
:101210005C1020208840304231D021680968C9061E
:101220002DD5A86094F8350005282068016806D0FF
:10123000490347D5006800031DD4616C1CE021F010
:10124000160101602068416921F080014161206C34
:1012500008B9A06C20B12068016821F00801016084
:1012600094F85C103F208840A86084F8358084F8AA
:101270003490216D1FE0E16B09B120468847606D15
:1012800000282BD0606DC00714D0052084F83500ED
:101290002068016821F0010101600098401C009065
:1012A000B84203D820680068C007F6D184F83580BA
:1012B00084F83490E16C002910D001B02046BDE8DC
:1012C000F04308470168C905D5D4016821F0100131
:1012D000016084F8358084F83490CCE7BDE8F88369
:1012E0001C0000202DE9F041044600F075F9064687
:1012F0005CB1022084F83500002584F83450206861
:10130000016821F0010101600DE00120BDE8F081DC
:1013100000F062F9801B052805D9202060650320B4
:1013200084F83500F2E720680068C007F0D1226831
:10133000116820480140D4E901031843D4E9033679
:101340003343184363691843A3691843E369184397
:10135000236A18430843616A042903D1D4E90B13B3
:1013600019430843106020684069666A20F007014D
:1013700030460E43012704280CD1A06A0643E06AD8
:1013800040B12046FFF754FB20B14020606584F84F
:101390003570BAE7206846612046FFF735FB94F8C0
:1013A0005C203F2191408160656584F835700020A4
:1013B000ACE700003F8010F070B5044600F00CF977
:1013C0000546601C02D004480078044400F004F98B
:1013D000401BA042FAD370BD100000202DE9F84F49
:1013E000DFF8BCA10022012503264FF00F090AF106
:1013F000040BAAF1040E00BF0B6805FA02F42340A7
:10140000A34270D10F7907F00307012F01D0022FFB
:1014100016D187684FEA420806FA08FC27EA0C074B
:10142000D1F80CC00CFA08FC4CEA070CC0F808C054
:101430004768A7430C79C4F3001494403C434460CC
:101440000C79E443A4070AD0C4684FEA420C06FAB8
:101450000CF7BC438F6807FA0CF72743C7600C7979
:1014600004F00304022C12D1D40800EB840CDCF845
:1014700020405707FF0E09FA07F824EA0804D1F8BC
:10148000108008FA07F848EA0408CCF820800468BD
:101490004FEA420C06FA0CF7BC430F7907F003073A
:1014A00007FA0CF7274307604C6814F4403F70D0EC
:1014B0003C4C276847F480472760246822F00307E4
:1014C00004F480440094384C07EB040CDCF8084822
:1014D00097074FEA177809FA08F7BC43334FB84229
:1014E00002D1002724E054E0314FB84201D1012756
:1014F0001EE0304FB84201D1022719E02E4FB8420A
:1015000001D1032714E02D4FB84201D104270FE089
:101510002B4FB84201D105270AE02A4FB84201D12A
:10152000062705E0284FB84201D1072700E0082729
:1015300007FA08F72743CCF80878DAF8004057464E
:10154000D1F804C09C435FEACC2C00D51C433C601E
:10155000DBF800405F46D1F804C09C435FEA8C2C66
:1015600000D51C433C60DEF800407746D1F804C04B
:101570009C435FEA8C3C00D51C433C60084F083F0D
:101580003C68D1F804C09C435FEACC3C00D51C43C6
:101590003C60521C102AFFF42FAFBDE8F88F00000A
:1015A000083C014044380240003001400000024045
:1015B0000004024000080240000C024000100240FB
:1015C0000014024000180240001C02400AB1816170
:1015D00070470904FBE7000001488068704700007D
:1015E0001000002002488168027811448160704731
:1015F000100000200B4810B5016841F40071016033
:10160000016841F480610160016841F4807101600A
:10161000032000F09FF80F2000F006F800F050F8CB
:10162000002010BD003C024030B505461F4887B081
:101630000024016841F480710160006806A900F48B
:101640008070009001A800F06BFE0498A8B100F033
:101650008DFE40001649174AB0FBF1F11648491EAD
:10166000026040F2E732C0E90324C0E9011484615A
:1016700001F074F9040003D015E000F077FEE9E70B
:101680000D4801F0C9F904000DD12D2000F034F807
:10169000102D07D2002229462D2000F03BF80748E4
:1016A000056000E0012407B0204630BD403802400C
:1016B00040420F00002000400808002014000020D5
:1016C0000C4882B0016841F480410160006800F478
:1016D000804000900748001F016841F08051016080
:1016E0000068002200F0805000900F21901E02B090
:1016F00000F010B844380240002809DB00F01F0257
:10170000012191404009800000F1E020C0F8001163
:1017100070470000F0B40E4B1B680C46C3F3022365
:10172000C3F10705042D00D90425191D072901D28D
:10173000002300E0DB1E012606FA05F1491E2140C8
:1017400099409E40761E16403143F0BC04F0D4BB55
:101750000CED00E0064900F0070208684FF6FF03B1
:10176000184040EA0220034A104308607047000016
:101770000CED00E00000FA057047006841620020AF
:101780007047F0B50368586A39B19C6A4FF48276A5
:1017900000EB144400204D1E0AE040EA024098622B
:1017A0000FE006EB8007DF59401C04EB1744C0B282
:1017B000A842F6D344EA02404FF4807202EB810162
:1017C00058500020F0BDD0F8080503F03BBA01EBFB
:1017D000C10200EB8202D0F80805D26C03F090B988
:1017E00001EBC10200EB8202D0F80805D2F88C228E
:1017F00003F0E1B9D0F8080503F026BA0A0601F0B3
:101800000F0101EBC10100EB810101D53C3101E089
:1018100001F51F71006804F05BB970B504460B0652
:1018200001F00F0000EBC00104EB81014FF0010259
:101830004FF0000503D581F83D203C3103E081F8ED
:101840007D5201F51F71087094F8BC04012808D07E
:1018500084F8BC24206803F0F5FD84F8BC54002013
:1018600070BD022070BD70B5044601F00F006268C3
:10187000904201D9012070BD0B0601F00F0101EB70
:10188000C10104EB81014FF001024FF0000503D5C7
:1018900081F83D203C3103E081F87D5201F51F7154
:1018A0008D70087094F8BC04012808D084F8BC241A
:1018B000206803F0C3FF84F8BC54002070BD0220F0
:1018C00070BD01F00F0101EBC10100EB8100D0F808
:1018D0009C0270472DE9F04104460F0601F00F000D
:1018E00000EBC00104EB81014FF001064FF0000551
:1018F00003D581F83D603C3103E081F87D5201F56C
:101900001F710870CA600B714A7802B10881022BFE
:1019100000D14D7194F8BC04012809D084F8BC644E
:10192000206803F0E7FC284684F8BC54BDE8F08149
:101930000220FBE770B50C4601F00F0505EBC50171
:1019400000EB8101C1F89432C1F88C220023C1F868
:101950009C3281F87D3281F87C52036901F51F7158
:10196000012B00D14A612207027C006803D003F0FA
:10197000BDFF002070BD03F0A7FEFAE770B5044676
:101980000D4601F00F006168884201D9012070BD49
:1019900029064FF000064FF0010207D500EBC00109
:1019A00004EB810181F83D203C3107E005EBC501E6
:1019B00004EB810181F87D6201F51F718A70087066
:1019C00094F8BC04012807D084F8BC24206803F0F4
:1019D00061FF280702D007E0022070BD217C04F2DD
:1019E000C442206803F0FEFE84F8BC64002070BD91
:1019F00070B50C4601F00F0505EBC50100EB810148
:101A00004B65CA640023CB65012381F83D3001F8A2
:101A10003C5F0369012B00D14A612207027C006808
:101A200003D003F063FF002070BD03F04DFEFAE722
:101A30002DE9FC5F05680446284604F0EAF8002812
:101A40007DD1206804F011F9002878D0D5F8080875
:101A5000C0F30D20C4F8FC04206804F006F98007E8
:101A600004D52068416901F002014161206804F059
:101A7000FCF8C10604F2C440009034D520688169A6
:101A800021F0100181612F6A07F00F0000EBC00008
:101A900004EB8006C7F3434006F51F76022802D008
:101AA000062811D01AE047F6F070074216D0C7F3A7
:101AB0000A1217462846316904F0DBF830693844C9
:101AC0003061306A384408E008222846009904F062
:101AD000D0F8306AC7F30A1108443062206881697F
:101AE00041F010018161206804F0BFF800034FF05D
:101AF000080B4FF0000A4FF001097CD50026206842
:101B000004F092F8074674E0F80770D0F1B220684C
:101B100004F0A3F88046C00707D005EB4611C1F8D2
:101B2000089B3146204601F0DDFF5FEA087024D5AE
:101B300005EB4611C1F808BB2068016C00E025E206
:101B400000EB46100191D0F8082BFC4B994205D9C7
:101B5000110403D54FF40041C0F8081B204600F0E3
:101B600005FBF6490198884207D92069012804D16C
:101B700020680121009A03F035FE5FEAC86004D5B1
:101B800005EB46111020C1F8080B5FEA88701DD5DF
:101B90006869000605D5D5F8040840F48061C5F8E9
:101BA000041806EBC60004EB800090F87F1200F5E5
:101BB0001F70012905D180F803A0F1B2204600F082
:101BC000EBF905EB46110220C1F8080B5FEA8860CB
:101BD00004D505EB46102021C0F8081B5FEA8840B9
:101BE00005D505EB46104FF40051C0F8081B7F08DF
:101BF000761C002F88D1206804F037F840036FD599
:101C0000206804F00AF80746002667E0F80763D06A
:101C1000F1B2206804F00FF88046C00723D006F028
:101C20000F0209FA02F0D5F834288243C5F83428A7
:101C300005EB4610C0F80899206901280FD106EB82
:101C4000C60004EB8000D0E912211144C16436B90A
:101C5000606D20B920680121009A03F0C3FDF1B244
:101C60002046FFF7B4FD5FEA087003D505EB461187
:101C7000C1F808B95FEAC86004D505EB4611102029
:101C8000C1F808095FEA486004D505EB4610402119
:101C9000C0F808195FEA887017D53146284603F066
:101CA0008BFF06EBC60004EB800090F83F103C3041
:101CB000012905D180F803A0F1B2204600F068F9AF
:101CC00005EB46110220C1F808095FEA086003D558
:101CD0003146204601F06CFF7F08761C002F95D11D
:101CE000206803F0C2FF002811DAD5F8040820F0BC
:101CF0000101C5F8041894F8F40401282BD02046FB
:101D000000F018FA2068416901F000414161206843
:101D100003F0ABFF00050BD5D5F80808C00702D0CB
:101D2000204600F04BFA2068416901F400614161EE
:101D3000206803F09AFFC00466D5D5F8040820F0A7
:101D40000100C5F804081021206803F035FF0021C8
:101D50004FF67F321FE084F8F4A400212046FFF7FD
:101D60000BFDCFE705EB4110C0F80829D0F800398A
:101D700023F40013C0F80039C0F8082BD0F8003B5A
:101D800023F40013C0F8003BD0F8003B43F000639D
:101D9000C0F8003B491C60688842E3D8D5F81C08AD
:101DA00040F00111C5F81C18206B002828460DD002
:101DB000D0F8840840F00B01C5F88418D5F8440821
:101DC00040F00B012846C5F844180DE0D0F814087F
:101DD00042F22B010843C5F81408D5F8100840F06A
:101DE0000B012846C5F81018D0F8000820F4FE6151
:101DF000C5F80018217C2068009A03F0F3FC2068E5
:101E0000416901F480514161206803F02EFF800494
:101E100015D5206803F0AEFA206803F0EDFEE0600F
:101E200000F09EFA0146227B206803F081FF2046E5
:101E300000F06AF92068416901F4005141612068AD
:101E400003F013FF000707D5204600F077F920685C
:101E5000416901F008014161206803F006FF0006B6
:101E600016D5A86920F08000A86101260DE000BF0A
:101E700006EBC60004EB800090F87F02012803D136
:101E8000F1B22046FFF7BAFC761C6068B042EFD88A
:101E9000206803F0EAFEC00221D501264F4616E075
:101EA00005EB4610D0F8001906EBC60004EB8000E5
:101EB00090F84020012A09D1002907DA80F83F7004
:101EC000F0B240F080012046FFF798FC761C606875
:101ED000B042E5D82068416901F480114161206871
:101EE00003F0C3FE800234D501204B4629E000BF39
:101EF00005EB4011D1F8001B00EBC00204EB820699
:101F000096F88022012A1BD1002919DA94F8FC24C2
:101F100001F4803102F00102914211D186F87F3242
:101F2000A96941F08002AA616969090608D4D5F857
:101F3000040840F40070C5F8040805E00A30544F66
:101F4000401C61688142D3D82068416901F40011C6
:101F50004161206803F089FE400007D52046FFF765
:101F600032FC2068416901F080414161206803F042
:101F70007CFE40070AD520684568680702D52046E0
:101F8000FFF738FC2068416829434160BDE8FC9FA9
:101F9000D0F8080502F0ACBED0F8080502F0BCBECF
:101FA0002DE9F0418AB0040005D094F8BD042668FC
:101FB000002520B108E001200AB0BDE8F08184F8D6
:101FC000BC54204600F05EF8032084F8BD04F06B9A
:101FD000C00500D42561206803F070FB04F11001F6
:101FE000282288466846FEF77CF994E80F0003F043
:101FF000CFF90226C8BB0021206803F059FE00205B
:1020000001270EE000EBC00104EB810181F83D7077
:1020100001F83C0F08810D71CD600D61401CC0B20C
:102020008D6161688142EDD8002011E000EBC001B4
:1020300004EB810181F87D5281F87C0281F88052A5
:10204000C1F88852C1F88C52401CC0B2C1F89452F9
:1020500061688142EAD8282241466846FEF741F984
:1020600094E80F0003F070FA10B184F8BD64A2E7A1
:1020700084F8385084F8BD74206803F057FA0020C3
:102080009AE7000010B586B0044614216846FEF7B2
:1020900041F92068B0F1A04F2FD119480021026802
:1020A00042F001020260006800F0010005904FF468
:1020B000C05000900220CDE90101032003900A20C6
:1020C000049069460F48FFF789F90D48001D016823
:1020D00041F0800101600A481430016841F48041F8
:1020E00001600068002200F4804005900521432033
:1020F000FFF710FB4320FFF7FFFA06B010BD00000A
:10210000303802400000024070B50446C068012526
:1021100070B1022801D0FEF7B6FC2946D4F80805B4
:1021200002F068FED4F80805BDE8704002F01DBE5C
:102130000025F2E7D0F8080502F045BED0F8080502
:1021400002F04BBE10B5044690F8BC0401280BD039
:10215000012084F8BC0484F83810206803F0D6FD10
:10216000002084F8BC0410BD022010BDD0F8082562
:1021700000F2C441104602F049BE10B504460068A2
:1021800094F8BC14012906D0012184F8BC14A16A7A
:10219000012902D008E0022010BDA169012903D065
:1021A000816B41F480318163206803F0E0FC20689A
:1021B00003F0AEF9002084F8BC0410BD10B504464D
:1021C000D0F8080502F064FE2068D0F8001E41F047
:1021D0000101C0F8001E206A002804D002480168EE
:1021E00041F00601016010BD10ED00E02DE9F0475F
:1021F0000E46050065D0DFF81481D8F80000F7B26C
:1022000000F00700B04207D288F80070D8F800004C
:1022100000F00700B04254D128683D4C810712D528
:10222000400703D5206840F4E0502060287800077C
:1022300003D5206840F4604020602068A96820F041
:10224000F000084320602878C0072DD03049686826
:102250000839012812D0022813D0032811D00968A8
:10226000890700292DDA216821F00301014321604B
:10227000FFF7B2F9814641F2883A0EE00968890316
:10228000EFE709688901ECE7FFF7A6F9A0EB090180
:10229000514502D90320BDE8F0872068696800F045
:1022A0000C00B0EB810FEFD1D8F80010404601F0E0
:1022B0000701B14207D90770006800F00700B0427B
:1022C00001D00120E7E72878400705D52068E968B4
:1022D00020F4E050084320602878000706D52068E5
:1022E000296920F4604040EAC100206000F05EF8F7
:1022F0002168084AC1F30311515CC84006490860CF
:1023000006480068FFF790F90020C4E7003C02404F
:1023100008380240E47600081C0000201400002069
:102320000F2202600C4A136803F003034360136832
:1023300003F0F0038360136803F4E053C360126892
:102340004FF4E05303EAD20202610448006800F04F
:10235000070008607047000008380240003C024057
:1023600001480068704700001C000020044805492F
:1023700000680968044AC1F38221515CC840704773
:102380001C00002008380240F47600080448054983
:1023900000680968044AC1F34231515CC840704783
:1023A0001C00002008380240F4760008154810B5DB
:1023B000006810F00C02144813D01449042A0FD0FE
:1023C000082A0ED10F4C241F2268236802F03F0216
:1023D0005B0207D52068C0F38810A0FB010106E06E
:1023E000084610BD2168C1F38811A1FB000100233C
:1023F000FDF746FF2168C1F30141491C4900B0FBCC
:10240000F1F010BD083802400024F400001BB700B2
:102410002DE9F84F04006ED02078DFF84C93C00708
:10242000A9F104054AD009F104000168C1F3810152
:10243000012908D00068C0F3810002280AD1D9F828
:102440000000400206D52868800337D56068002860
:10245000E1D033E06068B0F5803F10D0B0F5A02F38
:10246000286810D020F480302860286820F480206C
:1024700028606068A8B1FFF7AFF806460DE028684D
:1024800040F48030F4E740F480202860F7E700BF94
:10249000FFF7A2F8801B642873D828688003F7D55B
:1024A0000CE0FFF799F8064605E000BFFFF794F847
:1024B000801B6428F0D828688003F7D42078DFF8E0
:1024C000AC8280074FF0000A3ED5A748001D016886
:1024D00011F00C0F08D00068C0F3810002280BD166
:1024E000D9F80000400207D42868800716D5E068B4
:1024F000012800D112E033E1E068B8B10120C8F84A
:102500000000FFF769F8064605E000BFFFF764F832
:10251000801B0228C0D828688007F7D52868216961
:1025200020F0F80040EAC10028600DE0C8F800A0E3
:10253000FFF752F8064604E0FFF74EF8801B02282A
:102540001FD828688007F7D42078000722D5864F47
:1025500087486169703771B101210160FFF73CF86C
:10256000064604E0FFF738F8801B022809D83868CF
:102570008007F7D50EE0C0F800A0FFF72DF806465B
:1025800005E082E0FFF728F8801B02287DD8386834
:102590008007F7D42078400768D5DFF8CCB1002752
:1025A0000BF13C0BDBF80000C0000BD4DBF8001093
:1025B00041F08051CBF80010DBF80000012700F05B
:1025C000805000906B4E3068C00510D4306840F4E5
:1025D00080703060FFF700F8009005E0FEF7FCFF28
:1025E0000099401A022850D83068C005F6D55E4ED2
:1025F000A0686C3601280FD00528306810D020F074
:1026000001003060306820F004003060A068B8B18C
:10261000FEF7E2FF00900FE0306840F00100F4E7C1
:1026200040F004003060F7E7FEF7D6FF0099411A4A
:1026300041F28830814266D830688007F4D50EE0D8
:10264000FEF7CAFF009007E0FEF7C6FF0099411AA7
:1026500041F28830814256D830688007F4D42FB1D7
:10266000DBF8001021F08051CBF80010A069C8B34E
:102670003D49091D0968C1F3810102294AD0022898
:10268000504607D0C8F8600000E03CE0FEF7A4FF29
:1026900004463BE04746C8F86000FEF79DFF06464B
:1026A00005E000BFFEF798FF801B02282BD82868A2
:1026B0008001F7D4D4E907010843A16A2E4A4908EA
:1026C00002EB0141626A41EA8211084394F82C103E
:1026D00040EA0161C9F8001001203866FEF77CFF6E
:1026E000044606E03EE000BFFEF776FF001B02282E
:1026F00009D828688001F7D534E000BFFEF76CFFE9
:10270000001B022802D90320BDE8F88F2868800149
:10271000F4D427E00128F7D0D9F80000E26900F4EA
:10272000800191421CD1226A00F03F01914217D1F1
:1027300047F6C071626A0140B1EB821F10D1A26AF4
:102740004FF0FF3300F4403103EB5202B1EB024F84
:1027500006D194F82C1000F07060B0EB016F01D03E
:102760000120D1E70020CFE70438024000004742B3
:10277000800E4742007000400000FFFF70B504006B
:1027800009D0606A002540B125616561A56294F8B1
:10279000510040B10CE0012070BD6068B0F5827F4F
:1027A000F4D0E561F2E784F85050204600F044F898
:1027B000022084F851002068016821F04001016086
:1027C000A088218900F4827001F404410843A189A2
:1027D00001F400610843217C01F002010843217DDE
:1027E00001F001010843218B01F400710843217FAE
:1027F00001F03801084394F8201001F080010843EB
:10280000218D01F40051084321680860A06904216A
:1028100001EA104094F8241001F0100108432168E7
:1028200048602068C16921F40061C16165650120CB
:1028300084F85100002070BDF0B587B00446142123
:102840006846FDF767FD1C492068884232D11B4865
:102850000024016841F480510160006800F4805058
:10286000059016481438016841F0020101600168C2
:1028700001F002010591016841F001010160006869
:10288000022500F0010005901820CDE9000502AAFC
:102890000326052782E8D00069460948FEF79EFD19
:1028A0008020CDE9000502AA694682E8D0000548EB
:1028B000FEF794FD07B0F0BD0030014044380240FF
:1028C00000040240000002407047704770B590F865
:1028D0003C20012A32D0012480F83C40022280F8BA
:1028E0003D2003685A689D6822F070060A683243EA
:1028F0005A60134B02689A4214D0B2F1804F11D043
:10290000104B9A420ED0104B9A420BD00F4B9A426A
:1029100008D00F4B9A4205D00E4B9A4202D00E4B74
:102920009A4204D1496825F080031943916080F8E8
:102930003D40002180F83C10084670BD022070BD6B
:10294000000001400004004000080040000C00406E
:1029500000040140004001400018004010B5040090
:1029600003D094F83D0010B107E0012010BD002015
:1029700084F83C00204600F01FF8022084F83D0057
:10298000211D206801F0FCF9012084F8460084F83C
:102990003E0084F83F0084F8400084F8410084F849
:1029A000420084F8430084F8440084F8450084F829
:1029B0003D00002010BD000008B5134A016813480F
:1029C000914207D1016841F004010160006800F004
:1029D000040009E00E4A914208D1016841F0080163
:1029E0000160006800F00800009008BD09488142BD
:1029F000FBD10648001D016841F400310160006808
:102A000000F40030F0E700000008004040380240C9
:102A1000000C00400044014090F83D10012901D015
:102A200001207047022180F83D100168CA6842F019
:102A30000102CA6000681149884214D0B0F1804F89
:102A400011D00F4988420ED00E4988420BD00E4952
:102A5000884208D00D49884205D00D49884202D0ED
:102A60000C49884204D1816801F00701062903D08E
:102A7000016841F001010160002070470000014041
:102A80000004004000080040000C00400004014029
:102A9000004001400018004070B5044690F83C002A
:102AA0000025012817D0012684F83C60022084F814
:102AB0003D002068826822F0770222F47F42826023
:102AC0000868502838D00DDC20284FD005DC90B3A2
:102AD000102811D14AE0022070BD302846D040288D
:102AE0000AD13BE060282FD070280DD0B0F5805F70
:102AF00003D0B0F5005F12D0012584F83D600020BE
:102B000084F83C00284670BDCB68D1E901212068DB
:102B100001F09AF92068816841F0770109E0CB68FB
:102B2000D1E90121206801F08FF92068816841F422
:102B300080418160E1E719E0CA684968206801F0D6
:102B400057FA5021206806E0CA684968206801F0F9
:102B500060FA6021206801F081F9CEE7CA6849680F
:102B6000206801F045FA40212068F4E72268014618
:102B70001046F0E7704770B50446006801694FF0F1
:102B80000005C943890715D4C168C943890711D411
:102B9000E91E0161012020772068806980072046B6
:102BA00002D0FFF7E7FF04E000F0F2F8204600F063
:102BB00084F9257720680169C943490717D4C1689A
:102BC000C943490713D46FF0040101610220207743
:102BD0002068806910F4407F204602D0FFF7CAFFCA
:102BE00004E000F0D5F8204600F067F9257720686A
:102BF0000169C943090716D4C168C943090712D43A
:102C00006FF008010161042020772068C069800707
:102C1000204602D0FFF7AEFF04E000F0B9F82046EE
:102C200000F04BF9257720680169C943C90617D41C
:102C3000C168C943C90613D46FF0100101610820AF
:102C400020772068C06910F4407F204602D0FFF74B
:102C500091FF04E000F09CF8204600F02EF9257763
:102C600020680169C943C90708D1C168C943C907B8
:102C700004D1891E0161204600F020F92068016915
:102C8000C943090609D4C168C943090605D46FF0D0
:102C9000800101612046FFF717FE20680169C943E2
:102CA000490609D4C168C943490605D46FF04001FB
:102CB0000161204600F00CF920680169C9438906CA
:102CC0000BD4C168C943890607D46FF020010161A4
:102CD0002046BDE87040FFF7F8BD70BD10B586B066
:102CE000044614216846FDF715FB2368214C002299
:102CF00021480221A3420FD1036843F00803036077
:102D0000006800F00800059048038DE80700CDE951
:102D100003216946194814E0194CA34215D10268F1
:102D200042F0800202600068049100F0800005908B
:102D30004FF4E050CDE900010120CDE902016946E0
:102D40001048FEF74BFB06B010BD0F4CA342FAD162
:102D5000036843F020030360006800F02000059042
:102D600040208DE807000320CDE90320694607488D
:102D7000E7E700000008004030380240000C024045
:102D8000000C0040001C02400044014000140240BE
:102D9000704770B5044690F83C0000260D460128A7
:102DA0000FD0012084F83C006AB1042A1DD0082A03
:102DB0002FD00C2A3FD00126002084F83C0030465A
:102DC00070BD022070BD206801F050F82068816954
:102DD00041F0080181612068816921F0040181616D
:102DE000206881692A69114311E0206801F06EF8BA
:102DF0002068816941F4006181612068816921F462
:102E000080618161206881692A6941EA02218161CA
:102E1000D2E7206801F090F82068C16941F008010C
:102E2000C1612068C16921F00401C1612068C169E4
:102E30002A69114311E0206801F0B2F82068C169E5
:102E400041F40061C1612068C16921F48061C16100
:102E50002068C1692A6941EA0221C161ACE710B565
:102E6000040003D094F83D0010B107E0012010BD2C
:102E7000002084F83C00204600F01EF8022084F870
:102E80003D00211D206800F07BFF012084F84600F2
:102E900084F83E0084F83F0084F8400084F8410044
:102EA00084F8420084F8430084F8440084F8450024
:102EB00084F83D00002010BD70477047006803494A
:102EC000884201D1FEF78EBB704700000020004011
:102ED000704770477047000030B401680A68D20636
:102EE0005ED50A684968816B354A096891420AD003
:102EF000344A914207D0324A6032914203D0314A7B
:102F00006032914201D1202222E02D4B1833DA1495
:102F100099421DD02B4B1833994219D0284B783346
:102F2000994215D0274B7833994211D0244B920205
:102F3000303399420CD0234B3033994208D0204B88
:102F40009033994204D01F4B9033994200D09201A4
:102F50000B6823F001030B60816B1A4B096848333F
:102F6000994202D91749091F05E0154BA833994228
:102F700003D9144908390A6008E0114C104B483451
:102F8000103BA14201D9DA6000E09A60826B818D2A
:102F900012685160816B09680A6842F001020A6098
:102FA0000949884204D1816A30BC0848FDF7CCBC8D
:102FB0000749884202D130BC03F022BC30BC7047C4
:102FC0001060024010640240A0050020404500202F
:102FD000E4050020F8B5016804460868CA684B6932
:102FE00010F00F0F4FF0000559D003F0010602F466
:102FF0009077374365D0C10705D0D10503D5216C43
:1030000041F001012164410705D5D90703D0216CA6
:1030100041F002012164810705D5D90703D0216C55
:1030200041F004012164010707D502F0200131437A
:1030300003D0216C41F008012164216C00293AD0B1
:10304000800604D5900602D5204601F023F82068BA
:103050004069216CC0F38010090700D460B320469A
:1030600000F0F1FF20684069400621D52068143047
:1030700050E8001F21F0400140E80012002AF5D17D
:10308000A06BA8B16C490165A06BFEF748F8002859
:1030900011D0A06B016D01B0BDE8F0400847830678
:1030A0000FD593060DD52046BDE8F84000F0F2BFDD
:1030B0002046FFF70FFFF8BD2046FFF70BFF256402
:1030C000F8BD266B2023012E79D1C60677D5D6060A
:1030D00075D50868486800904869400640D5A16BDE
:1030E000086840680004000CEAD0A28D8242E7D94B
:1030F000E085C869B0F5807F2DD020680C3050E89D
:10310000001F21F4807140E80012002AF5D12068E8
:10311000143050E8001F21F0010140E80012002A9D
:10312000F5D12068143050E8001F21F0400140E83C
:103130000012002AF5D184F83E30256320680C3057
:1031400050E8001F21F0100140E80012002AF5D1DC
:10315000A06BFDF79BFFA08DE18D401A81B229E0A5
:10316000A08DE18D401A81B2E08D0028A8D0002901
:10317000A6D020680C3050E8002F22F4907240E86E
:103180000026002EF5D12068143050E8002F22F0E0
:10319000010240E80026002EF5D184F83E30256378
:1031A00020680C3050E8002F22F0100240E8002385
:1031B000002BF5D12046FFF78CFEF8BDFFE7050692
:1031C0002BD5150629D594F83D002128F5D1A06806
:1031D000B0F5805F01D12069B0B1206A411C216245
:1031E000216800784860E08C401E0004000CE084F8
:1031F000E3D12068C16821F08001C1602068C16806
:1032000041F04001C160D8E7206A0088C0F308009F
:103210004860206A801C2062E5E74006CDD5500654
:10322000CBD5CA68204622F04002CA6084F83D30FF
:1032300000F06FF9C1E700003740000870B50400E6
:1032400004D094F83D00002510B106E0012070BDC7
:1032500084F83C50204600F023F8242084F83D00F8
:103260002068C16821F40051C160204600F072FF5F
:103270002068016921F4904101612068416921F0D1
:103280002A0141612068C16841F40051C160256490
:10329000202084F83D0084F83E00002070BD00002E
:1032A0002DE9F04F87B0044614216846FDF732F847
:1032B0008C48DFF82C821438D4F800C0894A0226E2
:1032C00003210723002507154FF0006A4FF4807B88
:1032D000C4456BD1D2F800C04CF0100CC2F800C04D
:1032E000126802F010020592026842F002020260C7
:1032F000026802F002020592026842F001020260D6
:103300000068884600F0010005908020CDE90006A5
:103310000DF1080C99468CE8200369467248FEF7C7
:103320005DF83002CDE900060DF1080C69468CE825
:1033300020036E48FEF752F86E4E6D48D04630605E
:10334000C6E901A5C6E90357B94606F1180C5F4660
:103350004FF4403A75618CE8A00430467562FDF781
:10336000C1FF08B1FDF78FFBA663B463614E6048EF
:1033700060367830E6E802084020A6E8210246F8E8
:10338000145906F1180080E8A0045A4875626030AC
:10339000FDF7A8FF08B1FDF776FB66630022052163
:1033A0002520B463FEF7B6F925203DE0DFF848811B
:1033B000C4453ED14B4A121FD2F800C04CF4802CB9
:1033C000C2F800C0126802F480220592026842F03E
:1033D000040202600068029500F004000590CDE947
:1033E00003134FF44060CDE9000669464348FDF7FA
:1033F000F5FF404E4248C0363060C6E901A5C6E937
:1034000003577561C6E9065B356230467562FDF7A4
:1034100069FF08B1FDF737FBA663002205212720CD
:10342000B463FEF777F92720FEF766F907B0BDE829
:10343000F08F344B9C45F9D1136843F0200313609F
:10344000126802F020020592026842F04002026017
:103450000068029500F0400005904FF48440CDE9EB
:1034600000060820CDE9031069462748FDF7B6FF9E
:103470001F48264E18384FF020683060C6E9018595
:10348000C6E9035775614FF40039B561C6E90759BC
:1034900030467562FDF726FF08B1FDF7F4FAA66322
:1034A000B4631A4E124860366030E6E802084020E5
:1034B000A1C6164846F814596030B561C6E90759E7
:1034C0007562FDF70FFF08B1FDF7DDFA66630022B4
:1034D00005214720B463FEF71DF94720A4E700004B
:1034E0000010014044380240000402400000024045
:1034F00040640240280600200048004000080240C6
:1035000028600240001401400018024048070020D3
:103510007047704770B5054608782860B1F801001B
:103520000C4640BA1021DFED120A9FED120A03F09B
:10353000BFFD85ED010AE0782179000140EA111014
:103540000C21DFED0D0A9FED0D0A03F0B1FD85EDB5
:10355000020A60792179F3EE020A40EA01100C2197
:10356000BBEE020A03F0A4FD85ED030A70BD000066
:103570000000BF420000BFC200003442000034C25D
:10358000FEE70000F0B500230A24302537261F4649
:1035900011E000BFB4EB107F02D905EB107C01E015
:1035A00006EB107C01F813C001EB430C00015B1C1F
:1035B0008CF80170DBB29342ECD3F0BD0F4810B52C
:1035C0000D4901600321416000214FF41022816008
:1035D000C0E903124FF40012426101764176817610
:1035E000C17601774177FDF7E8FB002803D0BDE8FD
:1035F0001040FDF748BA10BD00640040DC03002015
:103600000F4810B50D4901600321416000214FF4BE
:1036100010228160C0E903124FF40012426101766A
:1036200041768176C17601774177FDF7C6FB0028A8
:1036300003D0BDE81040FDF726BA10BD0068004079
:1036400004040020074910B5054808600846FDF746
:10365000F7FC002803D0BDE81040FDF714BA10BDF8
:1036600000300240080000201D4808B5016841F400
:1036700080010160016801F480010091016841F45A
:10368000001101600068002200F400100090052184
:103690000C20FEF73FF80C20FEF72EF80022052143
:1036A0003920FEF737F83920FEF726F800220521E9
:1036B0003A20FEF72FF83A20FEF71EF800220521E7
:1036C0004520FEF727F84520FEF716F800220521D1
:1036D0004620FEF71FF8BDE808404620FEF70CB86C
:1036E0003038024000B587B01C2206496846FCF716
:1036F000F8FD0021684603F086FA0349086007B028
:1037000000BD0000C076000800000020F0B587B0C2
:1037100014216846FCF7FEFD2C48016841F00201C7
:103720000160016801F002010591016841F040016A
:103730000160016801F040010591016841F001015B
:103740000160016801F001010591016841F0080183
:103750000160016801F008010591016841F0040170
:103760000160016801F004010591016841F08001E8
:103770000160016801F080010591016841F02001BC
:1037800001600068124E00F0200005900122102117
:103790003046FDF71BFF0F4F012211463846FDF75B
:1037A00015FF01241020CDE90004022569463046AA
:1037B000CDE90245FDF712FE0094694638460194B2
:1037C000CDE90245FDF70AFE07B0F0BD30380240F2
:1037D0000000024000040240104810B50E4901608C
:1037E0004FF482714160002102228160C0E903121E
:1037F00001224261520282613822C0E907214162FE
:1038000081620A21C162FEF7B9FF002803D0BDE83A
:103810001040FDF738B910BD003001402C040020E5
:1038200010B588B01C216846FCF774FD1448134994
:103830000024C0E9001441F28731C0E9024104616B
:103840008461FFF78BF808B1FDF71DF90C48FFF70D
:1038500006FB08B1FDF717F96020CDE900040294DA
:103860000022694606480494FFF793FA08B1FDF771
:103870000AF90348FFF732FA08B010BD00440140CE
:103880001405002010B58EB0002407940894099404
:103890000A940B941C2168460C94FCF73BFD1E48CF
:1038A0001C4901605321C0E90114F921C0E9031446
:1038B00080218161FFF752F808B1FDF7E4F84FF479
:1038C0008050079007A91448FFF7E6F808B1FDF704
:1038D000DAF81148FFF7C3FA08B1FDF7D4F80B94F2
:1038E0000BA90D480C94FEF7F1FF08B1FDF7CBF8DA
:1038F0006020CDE900040294082269460648049439
:10390000FFF747FA08B1FDF7BEF80348FFF7E6F9FD
:103910000EB010BD000800408404002010B58EB029
:1039200000240794089409940A940B941C21684677
:103930000C94FCF7EFFC26482449C0E900144FF62C
:10394000FF71C0E9024104618461FFF707F808B123
:10395000FDF799F84FF48050079007A91C48FFF72E
:103960009BF808B1FDF78FF81948FFF778FA08B10E
:10397000FDF789F80B940BA915480C94FEF7A6FFE8
:1039800008B1FDF780F86020CDE900040294002220
:1039900069460F480494FFF7FCF908B1FDF773F886
:1039A000042269460A48FFF7F4F908B1FDF76BF8FD
:1039B000082269460648FFF7ECF908B1FDF763F8FD
:1039C0000348FFF78BF90EB010BD0000000C00405B
:1039D000CC0400200C4810B50A4901604FF4E131D5
:1039E0004160002181600C22C160C0E90412816144
:1039F000C161FFF723FC002803D0BDE81040FDF7AC
:103A000042B810BD001001405C0500200C4810B504
:103A10000A4901600B494160002181600C22C160AC
:103A2000C0E904128161C161FFF708FC002803D0DE
:103A3000BDE81040FDF727B810BD00000048004069
:103A4000A0050020A08601000C4810B50A490160BD
:103A50004FF4E1314160002181600C22C160C0E976
:103A600004128161C161FFF7E9FB002803D0BDE8C2
:103A70001040FDF708B810BD00140140E405002017
:103A800010B500220F49104801F015F808B1FCF7F5
:103A9000FAFF0E490C4801F023FA08B1FCF7F3FFD6
:103AA0000B49094800F0B6FD08B1FCF7ECFF0648E9
:103AB00001F09AFA002803D0BDE81040FCF7E3BFFC
:103AC00010BD000094000020CC48002050010020D0
:103AD000E4000020FEE7FEE70148FDF7A9BF000073
:103AE000906000202DE9F04103680D4604461E6CED
:103AF00003EB4511D1F8080BD4F810E04FF4004760
:103B00004FF0200C04F2C442BEF1010F09D0DFF8DF
:103B100098E0764539D1020432D500BFC1F8087B60
:103B20003FE0224B5FEA007E04D59E4239D9000473
:103B3000F4D436E05FEA806E02D5C1F808CB30E0FD
:103B400010F0280F2DD19E4201D90004E6D405EBD8
:103B5000C50004EB8000D1F8101BD0F89832C1F3F7
:103B60001201591AC0F89C1200F51F70ADB9836993
:103B70001BB10269114401610FE0012120680AE0D4
:103B800080060AD5C1F808CB07E035B9D4F894020D
:103B900018B90021184601F025FEE9B22046FDF7CC
:103BA0001FFE0020BDE8F0810A31544F0A30544F07
:103BB0002DE9F84F0E4601EBC60100EB810481466A
:103BC0000568616DE06D3C34884202D90120BDE892
:103BD000F88F081AE168814200D20846C01C8708A5
:103BE00005EB46181BE000BFA0EB010AE06850455A
:103BF00000D282460AF10300870899F8100000906D
:103C00001FFA8AF3F2B22846216902F005F9216908
:103C100001EB0A002061216A01EB0A002062D8F85A
:103C2000180980B2B84205D3216AA069814201D245
:103C30000028D9D1216AA069884208D806F00F016E
:103C400001208840D5F834188143C5F83418002085
:103C5000BDE70178407841EA00207047FFF710FF88
:103C60000B4C0025208870B10AA002F0E9F82188E9
:103C70000A48FCF739FE0AA002F0E2F8C82107481A
:103C8000FCF748FB2580012002F0B1FFEAE70000C5
:103C9000E20000205553425F52580000A84D00201A
:103CA0000D0A000010B5502080F31188BFF34F8F2C
:103CB000BFF36F8F03F03CFC18B104494FF0805004
:103CC0000860002080F3118810BD000004ED00E0C2
:103CD00030B593B030216846FCF71CFB14210CA8CA
:103CE000FCF718FB1D480025016841F08051016078
:103CF000006800F0805011901948016841F480413B
:103D000001600068022400F48040119001200090BE
:103D1000000401908001CDE9064006200890A8200B
:103D2000CDE9090407200B906846FEF771FB08B146
:103D300072B6FEE70CA90F2081E831004FF4A050C5
:103D40000F904FF48050109005210CA8FEF74EFA0A
:103D5000002801D072B6FEE713B030BD40380240F3
:103D6000007000400248016841F470010160704732
:103D700088ED00E00148FEF7FEBE000008080020C4
:103D8000F0B50268254C264D264E274F274B4FF0A5
:103D9000804CA04209D0604507D0A84205D0B0426F
:103DA00003D0B84201D0984204D122F0700E4A6884
:103DB00042EA0E02A0421BD0604519D0A84217D09B
:103DC000B04215D0B84213D0984211D0184DA84235
:103DD0000ED0184DA8420BD0174DA84208D0174D51
:103DE000A84205D0164DA84202D0164DA84203D1D4
:103DF00022F44075CA682A434D6922F080022A43A2
:103E000002608A68C2620A688262A04201D0984257
:103E100001D10969016301214161F0BD0000014048
:103E20000004004000080040000C00400004014075
:103E3000004001400044014000480140001800409B
:103E4000001C00400020004010B5846842EA0322B4
:103E500024F47F440A432243826010BD826822F02A
:103E600070020A4342F0070181607047F0B5026AB0
:103E700022F001020262036A42688469124E24F051
:103E800073050C682C4323F002058B682B430D4D02
:103E9000A84201D0B04205D123F00807CB683B43CC
:103EA00023F00403A84201D0B04205D14D6922F4A9
:103EB000407215438A692A434260846149684163BC
:103EC0000362F0BD0000014000040140F0B5026A49
:103ED00022F010020262026A436884690D6824F4C9
:103EE000E64444EA05248D6822F0200242EA0512E5
:103EF0000F4D104EA84201D0B04206D1CF6822F03B
:103F0000800242EA071222F04002A84201D0B042E9
:103F100007D14D6923F4406343EA85038D6943EA81
:103F2000850343608461496881630262F0BD0000DB
:103F30000000014000040140F0B5026A22F48072E2
:103F40000262026A4368C46922F4007224F07305B5
:103F50000C68124E2C438D6842EA05220E4DA84291
:103F600001D0B04206D1CF6822F4006242EA0722B3
:103F700022F48062A84201D0B04207D14D6923F4F7
:103F8000405343EA05138D6943EA05134360C46156
:103F90004968C1630262F0BD0000014000040140B5
:103FA00030B5026A22F480520262046A4268C36930
:103FB0000D6823F4E64343EA05238D6824F4005496
:103FC00044EA0534084DA84202D0084DA84204D165
:103FD0004D6922F4804242EA85124260C361496819
:103FE0000164046230BD0000000001400004014093
:103FF00010B5036A046A24F001040462846924F0A1
:10400000F00444EA021423F00A020A4384610262C3
:1040100010BD10B5036A23F0100303628369046ABC
:1040200023F4704343EA023224F0A00343EA01116F
:104030008261016210BD10B5806B0021C185C18411
:10404000FEF748FF10BD01680C3151E8002F22F443
:10405000907241E80023002BF5D10168143151E83A
:10406000002F22F0010241E80023002BF5D1016B63
:10407000012909D101680C3151E8002F22F010020A
:1040800041E80023002BF5D1202180F83E100021CB
:104090000163704708B590F83E10222901D0022034
:1040A00008BD82684FF480539A4201D1016921B161
:1040B000816A9A421BD04AB10AE00268816A52685A
:1040C000C2F308020A80816A891C08E0026972B1A1
:1040D0000268526802F07F020A70816A491C81629C
:1040E000C18D491E0904090CC18503D019E002687D
:1040F0005268F1E70168CA6822F02002CA600168CC
:10410000CA6822F48072CA6001684A6922F001021A
:104110004A61202180F83E10016B012903D0FFF78E
:10412000F7F9002008BD0021016301680C3151E856
:10413000002F22F0100241E80023002BF5D1016886
:104140000A68D20602D50A6849680091818DFEF797
:10415000C0FEE6E770B5044600680169E26821F434
:104160004051114301612169A068E2690843616916
:10417000114308432168CA6849F20C639A43024319
:10418000CA6020684169A26921F44071114341610C
:1041900031492068884202D03049884202D1FEF776
:1041A000F5F801E0FEF7E2F8E26900231921642541
:1041B0003226B2F5004F626828D0A0FB0101930FB0
:1041C0009200FCF75DF80146B0FBF5F06FF01802C5
:1041D000504301EB800006EB0010B0FBF5F000F05F
:1041E000F002B1FBF5F002EB0012B1FBF5F06FF05D
:1041F0001803584301EB800006EB0010B0FBF5F00C
:1042000000F00F0021681044886070BDA0FB010120
:1042100092185B41FCF734F80146B0FBF5F002015F
:10422000B1FBF5F06FF01803584301EB800006EB8B
:10423000C000B0FBF5F000F0F80002EB4002B1FB6B
:10424000F5F0584301EB800006EBC000B0FBF5F041
:1042500000F00700D6E70000001001400014014004
:104260000148FEF7B7BE00005C0500200148FEF7DC
:1042700033BE0000A00500200148FEF72DBE00005F
:10428000E40500202DE9F0410C46D0F8D412D0F816
:10429000C82200EB8101D1F8C01229B304F00F0647
:1042A00006EB860300EB83050027AB694BB106EBF9
:1042B000C60602EB8602926CB3FBF2F602FB1632E4
:1042C000A2B1C1F81472D0F8D42200EB8200D0F869
:1042D000C40203692BB1D1F80802224601F504712A
:1042E00098470020BDE8F0810320FBE700231A4631
:1042F0002146AF6100F0D5FDF3E770B50546D0F873
:10430000D40205EB8000D0F8C04294B1284600F0FA
:10431000AAFCC4F80C02D5F8D412D4F8040205EBB8
:104320008101D1F8C412CA6804F5037190470020D6
:1043300070BD032070BD000070B5224D0446297881
:1043400000F0D5FB2878002600F00F0000EB80007D
:1043500004EB800086846978204600F0C8FB68780A
:1043600000F00F0000EB800004EB8000A0F8646117
:10437000A978204600F0BBFBA87800F00F0000EB06
:10438000800004EB80008684C684D4F8D40204EB59
:104390008000D0F8C01299B1D0F8C40240688047BC
:1043A000D4F8D40204EB8000D0F8C00200F09DFFE6
:1043B000D4F8D40204EB8000C0F8C062C4F8BC6238
:1043C000002070BDFC00002010B5D0F8D41200EB26
:1043D0008100D0F8C04284B1D0F8C41259B194F829
:1043E0000002FF2807D08B6894F8012221469847E5
:1043F000FF2084F80002002010BD032010BD000043
:104400000A210180004870470001002070B506466F
:1044100082210C4800F0FBFA05460121094800F012
:10442000F6FA04468121074800F0F1FA0DB1102197
:10443000A971402104B1A18000B181804320308066
:10444000004870BD0C01002070B5064682210D4861
:1044500000F0DDFA054601210A4800F0D8FA0446CA
:104460008121084800F0D3FA0DB11021A9714FF451
:10447000007104B1A18000B18180432030800148E7
:1044800070BD00000C01002070B5064682210C486A
:1044900000F0BDFA05460121094800F0B8FA0446CB
:1044A0008121074800F0B3FA0DB11021A971402114
:1044B00004B1A18000B1818043203080004870BDEC
:1044C0000C0100202DE9F04704464FF407752846FB
:1044D00000F00CFF06004FF0000863D02946FBF700
:1044E00019FFD4F8D4023C4D04EB80004FF01009C2
:1044F000C0F8C062C4F8BC62207C4FF4007A012787
:10450000F0B3402302222978204600F019FC2878D5
:10451000402300F00F0000EB800004EB8000878454
:1045200002226978204600F00BFC6878082300F02E
:104530000F0000EB800004EB80000322A0F8647100
:10454000A978204601F00F0101EB810104EB810104
:10455000A1F82690A97800F0F3FBA87800F00F00EE
:1045600000EB800004EB80008784C6F80482D4F856
:10457000D402474604EB8000D0F8C402006800E093
:1045800018E006F5017680473761776132687AB1C5
:10459000207CF8B140236978204600F0DDFB002044
:1045A000BDE8F087D4F8D41204EB8101C1F8C082D1
:1045B0000220F5E7534602222978204600F0C0FB8E
:1045C0002878534600F00F0000EB800004EB8000D9
:1045D0008784A5E75346DEE7FC00002010B5D0F83D
:1045E000D41200EB8101D1F8C01259B1027C084C01
:1045F000002AD1F8042207D04023617800F0ACFBF8
:10460000002010BD032010BD4FF40073F5E700003B
:10461000FC00002039B1D0F8D42200EB8200C0F8B1
:10462000C4120020704703207047D0F8D42200EB5A
:104630008200D0F8C00218B1C0F804120020704700
:1046400003207047D0F8D43200EB8300D0F8C002CA
:1046500028B1C0F81022C0F80812002070470320CB
:1046600070472DE9FC410646D0F8D4020C4606EB13
:1046700080000021D0F8C0728DF80010ADF8041051
:104680000D4637B1217811F060022FD0202A4BD18E
:1046900002E00320BDE8FC81E288F2B109060DD5F5
:1046A000D0F8C40263783946D0F808C01846E0470D
:1046B000E288072A00D9072239462DE0607887F87A
:1046C0000002E088402800D34020C2B287F80122CF
:1046D0003946304600F081F82BE0D0F8C402637808
:1046E0000022866821461846B04722E0607830B143
:1046F00001281ED00A2809D00B2815D110E096F801
:104700009C02032810D1022201A905E096F89C0220
:10471000032809D101226946304600F078F808E004
:1047200096F89C02032804D02146304600F04AF84F
:1047300003252846AEE7000010B5D0F8D41200EBF0
:104740008101D1F8C02201211AB1D2F8143213B17B
:1047500016E0032010BD0121C2F814120949D2F855
:104760001032097801F00F0404EB840400EB840498
:10477000A361D2F81032D2F8082200F092FB002197
:10478000084610BDFC00002010B5D0F8B822002467
:104790005268904700B10324204610BD00207047A6
:1047A00000207047134610B50A46002100F0D4FAE5
:1047B000002010BD134610B50A46002100F071FB21
:1047C000002010BD10B50446802100F04FFB2046AC
:1047D000BDE81040002100F049BB10B50323C0F82C
:1047E0009432C0F858211346C0F85C210A460021D3
:1047F00000F0B2FA002010BD10B50521C0F89412E7
:1048000000231A46194600F0A7FA002010BD10B583
:104810000223C0F8943282611346C2610A46002125
:1048200000F03FFB002010BD10B50421C0F8941229
:1048300000231A46194600F034FB002010BD00008A
:1048400010B50A46024903A000F005F9004810BD62
:10485000A84B002043444320436F6E666967000005
:104860001220088000487047B400002010B50A46A6
:10487000024903A000F0EFF8004810BDA84B00204B
:1048800043444320496E74657266616365000000AD
:104890000420088000487047B000002010B50A4688
:1048A000024903A000F0D7F8004810BDA84B002033
:1048B00053544D6963726F656C656374726F6E6992
:1048C0006373000010B50A46024903A000F0C3F864
:1048D000004810BDA84B002053544D333220566978
:1048E000727475616C20436F6D506F7274000000BC
:1048F00010B51A2008800A480168001D0468001DD0
:104900000068081809D008220649FEF73BFE054951
:10491000042210312046FEF735FE0248801E10BDED
:10492000107AFF1FCA000020F8B504460020ADF839
:10493000000048880D46010A08295FD2DFE801F02F
:104940005E0409175E5E3C45D4F8B412207C0A6808
:1049500019E0207C02260028D4F8B80205D0C16AEC
:10496000684688470146467039E0816AF8E7C0B278
:10497000062843D2DFE800F0030A1014181CD4F80C
:10498000B402426805E0694690471CE0D4F8B402DE
:10499000826892B3207CF6E7D4F8B402C268F8E7E4
:1049A000D4F8B4020269F4E7D4F8B4024269F0E73B
:1049B000D4F8B4028269ECE7207CF0B9D4F8B802EC
:1049C000416B68468847014609E0207CA8B9D4F8C5
:1049D000B802016B68468847014607204870EA889C
:1049E0008AB1BDF8000040B1824200D90246ADF85C
:1049F00000202046FFF70BFFF8BDFFE729462046C1
:104A0000FFF7E0FEF8E72046FFF70EFFF4E778B582
:104A10000E4642880178002504468A4212D9ADF834
:104A200000100AE0694600F00FF84178052904D12A
:104A300081780546B14205D000256188BDF8002087
:104A40009142EFD8284678BD0A8803781A440A8034
:104A500001780844704770B5002300281ED0002557
:104A6000044602E06D1CEDB2641C2678002EF9D1DC
:104A7000022404EB450414801278CA545B1C032200
:104A8000CA5400245B1C06E0CA545B1CDAB28C5486
:104A9000521CD3B2401C0278002AF5D170BD01002F
:104AA0004FF0000004D0012901D0022901D00320D9
:104AB00070470120704778B10023C0F8B832C0F8C1
:104AC000C432C0F8D03209B1C0F8B412012180F864
:104AD0009C12027000F0CCB80320704710B5D0F8DB
:104AE000C802FCF7C0FEBDE81040FFF7D8BF10B504
:104AF000D0F8C802FCF791FEBDE81040FFF7CFBF29
:104B00002DE9F04117460446002521B194F89C0296
:104B1000032842D04CE0D4F8941204F11400022986
:104B200035D1D0E902639E4206D9F21A8260394635
:104B30002046FFF73FFE0FE0B34214D14068984291
:104B400011D3D4F8981288420DD200221146204683
:104B5000FFF730FEC4F8985200231A461946204643
:104B600000F0FAF813E094F89C02032808D1D4F876
:104B7000B802C16821B1C4F8D452C1682046884740
:104B80008021204600F072F92046FFF735FE94F8A8
:104B9000A00268B184F8A0520AE0D4F8B8024269D1
:104BA00032B1C4F8D452426920469047002800D15F
:104BB0000020BDE8F08170B513460446002221B103
:104BC00094F89C02032830D03AE0D4F8941204F50B
:104BD000AA70032934D1D0E902518D420AD96A1A48
:104BE00082600846824200D3024619462046FFF7FB
:104BF000D9FD25E094F8AA0210F01F0003D0012887
:104C000002D0022800D0002294F89C02032808D188
:104C1000D4F8B802016921B1C4F8D4220169204650
:104C200088472046FFF700FE0AE0D4F8B8028369FF
:104C300033B1C4F8D422826920469047002800D1BD
:104C4000002070BD0020704710B50024012180F8BD
:104C50009C12D0F8B82222B152680179904700B175
:104C60000324204610BDD0F8C802FCF72ABE00007D
:104C700010B5017839BB15490222C1F80805C0F802
:104C8000C8124FF0A0400860042048600020C1E92D
:104C90000320C1E9062008624862C862086308462A
:104CA000FDF77EF908B1FBF7EEFE80210748FCF71F
:104CB00064FD402200210548FCF763FD80220121AC
:104CC0000248FCF75EFD002010BD0000906000204F
:104CD0000A0601F07F01D0F8C80201EBC10100EB28
:104CE000810002D590F83E00704790F87E02704730
:104CF00010B5D0F8D42200EB8202D2F8B82222B14B
:104D000090F89C32032B02D004E0032010BD126AFD
:104D100002B19047002010BD10B5D0F8D42200EBAE
:104D20008202D2F8B82222B190F89C32032B02D032
:104D300004E0032010BD526A02B19047002010BD6C
:104D400010B51C461346D0F8C8022246FCF7C2FD37
:104D5000BDE81040FFF7A3BE10B5D0F8C802FCF7BD
:104D6000E9FDBDE81040FFF79ABE2DE9F0410026AD
:104D70000125044680F89C52C4F894626660C4F829
:104D8000A46280F8A062D0F8B80230B1426822B1C3
:104D900000212046904700B10326002240231146FF
:104DA0002046FFF7CDFF4027A4F864513B46002280
:104DB00080212046C4F86071FFF7C2FFA584304609
:104DC0002762BDE8F08190F89C12042903D190F885
:104DD0009D1280F89C120020704710B590F89C122C
:104DE000032905D1D0F8B81211B1C96901B18847BA
:104DF000002010BD01740020704710B5D0F8C80223
:104E0000FDF7A0F9BDE81040FFF749BE70B50446B4
:104E100000F2AA20054600F04DF80120C4F89402E3
:104E2000B4F8B002C4F8980294F8AA0210F01F0176
:104E30000AD001290ED0022912D000F080012046AC
:104E4000BDE8704000F012B829462046BDE8704029
:104E500000F0CCB829462046BDE8704000F00CBAFE
:104E600029462046BDE8704000F056B910B5D0F88C
:104E7000C802FCF783FDBDE81040FFF710BE10B577
:104E8000D0F8C802FDF779F9BDE81040FFF707BE7A
:104E900090F89C1280F89D12042180F89C1200204A
:104EA000704710B5D0F8C802FCF7A2FDBDE810406D
:104EB000FFF7F5BD70B5054611F8010B28700878AD
:104EC00068704C1C2046FEF7C4FE6880A41C204677
:104ED000FEF7BFFEA880A01CFEF7BBFEE88070BDF9
:104EE00038B504460020ADF80000A1B1C4F8B812EE
:104EF000D4F8D40204EB8000D0F8B802C16A19B12A
:104F000068468847C4F8D002D4F8D802401CC4F8D8
:104F1000D802002038BD032038BD02460020D2F858
:104F2000B832002B02D01B681046184770470000AB
:104F30002DE9F04188462B4E8978002504463170D2
:104F4000012906D941462046FFF73CFC0320BDE875
:104F5000F08194F89C02022702280CD003281DD06F
:104F600041462046FFF72EFC31782046FFF70CFC27
:104F700003252846EBE789B320466160FFF7CDFFA4
:104F8000050004D041462046FFF71CFC1DE02046EA
:104F9000FFF74AFC032084F89C02EAE7C1B160688D
:104FA00088421BD0C1B22046FFF7EEFB3178204685
:104FB0006160FFF7B2FF050010D041462046FFF7C1
:104FC00001FC21792046FFF7DFFB84F89C72D0E7D3
:104FD00084F89C7220466160FFF7D6FB2046FFF7FD
:104FE00023FCC6E7F8000020FFF749BF2DE9F04198
:104FF0000A78002512F060020CD0202A01D0402A45
:105000007DD1D0F8D42200EB8202D2F8B822926887
:10501000904731E04B78002201260A2B6FD2DFE85F
:1050200003F041666E586E08056E2D29FFF77CFC73
:1050300067E004468888D8B9C888C8B948888028F5
:1050400016D200F07F0794F89C02032810D084F851
:105050009E7239462046FFF7D0FE2046FFF7E4FB5C
:105060001FB1022084F89C024BE084F89C6248E067
:10507000204644E0FFF75CFF054642E0CB88012B69
:105080003DD190F89C32012B04D0022B02D0032B8F
:1050900035D104E08260012200F1080116E001220E
:1050A000011D13E090F89C22012A03D0022A01D0AE
:1050B000032A24D1CA88022A21D1C660D0F8A412BA
:1050C00009B10321C160022200F10C01FFF79FFB2F
:1050D00017E04A88012A02D0022A03D00FE0C0F864
:1050E000A46216E08988090A80F8A01211E090F8FD
:1050F0009C32012B08D0022B06D0032B04D0FFF7E3
:1051000061FB2846BDE8F08149880129F9D1C0F842
:10511000A422FFF789FBF4E72DE9F0410546087862
:105120000C790E464FF0000810F060000BD02028DC
:1051300001D040286AD121462846FFF72FFBFF28DF
:1051400000D0D8B395E07078C8B3012824D00328E4
:105150005CD195F89C02022802D0032856D10CE0BD
:10516000002C53D0802C51D021462846FFF77EFEDC
:1051700080212846FFF77AFE7BE0708840B93CB179
:10518000802C05D0C88818B921462846FFF76EFE46
:105190002846FFF749FB6CE095F89C020228DFD017
:1051A000032863D1708880BB600603D0214628465F
:1051B000FFF794FC2846FFF737FBBCE700E00AE066
:1051C000C5F8D402D5F8B8028268F2B13146284653
:1051D000904780464DE095F89C020027022802D0B7
:1051E000032843D113E00CB1802C3FD1200604F0FA
:1051F0007F0000EB800005EB800101D5143101E058
:1052000001F5AA7102220F602CE032E02EE02006A8
:1052100004F00F0000EB800005EB800009D5808CC6
:1052200020B304F07F0000EB800005EB800614360D
:105230000AE0B0F86401C8B104F07F0000EB800020
:1052400005EB800606F5AA764CB1802C07D02146E6
:105250002846FFF73DFD10B10120306000E03760C7
:10526000022231462846FFF7D2FA02E02846FFF72D
:10527000A9FA4046BDE8F08170B5054608780024DB
:105280000E4610F0600003D0202801D0402827D11E
:1052900095F89C02012803D0022801D003281FD1D1
:1052A000B088C1B201291AD8C1B22846FFF778FAEE
:1052B000FF280CD058B9D5F8B8128A683AB1C5F8A9
:1052C000D4028A68314628469047044600E0032409
:1052D000F088204307D12846FFF7A6FA03E03146BD
:1052E0002846FFF76FFA204670BD704700487047A8
:1052F000705E002070B50A78012302F00F054E7829
:10530000AB401B4CD0F81C58012E17D045EA034384
:10531000C0F81C3800EB4210D0F8002B12040BD45C
:10532000D0F8002B8B890979C3F30A031A4344EAA6
:1053300081410A43C0F8002B002070BD9BB21D4381
:10534000C0F81C5800EB4210D0F800391B04F3D40D
:10535000D0F800398D890979C5F30A0589042B43F2
:1053600041EA82510B432343C0F80039E4E70000CF
:1053700000800010D0F800196FF30A01C0F800197E
:10538000D0F8041841F48071C0F804180020704768
:1053900070B5044606990A9E049D0D98012916D001
:1053A000E06840F04000E060204600F02BF8A16B80
:1053B0001EB321F48031A163012D07D1A16841F012
:1053C0000601A160A16841F02001A16070BDA16B40
:1053D00021F48031A163E168094A1140E160E1688C
:1053E00021F44011E160012803D1E06840F480100D
:1053F000E060204600F006F8DEE741F48031DAE7AD
:10540000BFFFBDFF08B500220D490092009B5B1C49
:1054100000938B420CD80369002BF7DA00920269E3
:1054200042F001020261009A521C00928A4201D9A4
:10543000032008BD0269D207F5D1002008BD000095
:10544000400D030030B54C780A78012300EB42127E
:10545000012C2CD0D2F8004B002C0BDAD2F8004BE8
:1054600044F00064C2F8004BD2F8004B44F0804492
:10547000C2F8004BD0F83C580C7804F00F0403FA43
:1054800004F425EA0444C0F83C48D0F81C480978E4
:1054900001F00F018B4024EA0341C0F81C18D2F838
:1054A000000B19490840C2F8000B002030BDD2F8AB
:1054B0000049002C0BDAD2F8004944F00064C2F82D
:1054C0000049D2F8004944F08044C2F80049D0F8BD
:1054D0003C480D7805F00F0503FA05F5ADB2AC4375
:1054E000C0F83C48D0F81C48097801F00F018B4007
:1054F00099B28C43C0F81C48D2F80009034908400F
:10550000C2F80009D1E700000078F3EF007833EC2F
:10551000D0F8001E21F00301C0F8001ED0F80418D6
:1055200021F00201C0F8041800207047D0F8001ED6
:1055300021F00301C0F8001ED0F8041841F0020168
:10554000C0F80418002070472DE9F04F00250E46E2
:105550000446DDF82CC0DDF824B0109F284629460B
:1055600004EB8002C2F80411401C0F28F8D3204637
:10557000C7B1806B20F40012A263A06B40F400223C
:10558000A26308468846C4F8000ED4F800182046E6
:10559000C4F80018BCF1010F16D0D0F8001841F083
:1055A000030116E0D0F8040840F00202C4F8042811
:1055B000A06B40F40012A263A06B20F40022A2634F
:1055C000A06B20F48022DBE7D0F800180BB141F08B
:1055D0000101C0F80018102100F0EEFA00B1012519
:1055E000204600F0CBFA00B101254046C4F81088EF
:1055F000C4F81488C4F81C8800214FF000694FF0EB
:10560000904A4FF67F3314E004EB4112D2F800C900
:10561000BCF1000F06DA11B1C2F800A904E0C4F829
:10562000009901E0C2F80009C2F81009C2F808396F
:10563000491C8E42E8D8002115E000BF04EB41125E
:10564000D2F800CBBCF1000F06DA11B1C2F800AB02
:1056500004E0C4F8009B01E0C2F8000BC2F8100B94
:10566000C2F8083B491C8E42E8D8D4F8101821F43F
:105670008072C4F81028A0616FF080406061BBF1B7
:10568000000F03D1A06940F01000A061A069094992
:105690000843A0610C9818B1A06940F00800A0610F
:1056A000012F03D1A06904490843A0612846BDE841
:1056B000F08F000000383C8004000040816821F039
:1056C000010181600020704770B50D784E78444C20
:1056D000EBB200EB4313012E21D0D3F8100B6FF384
:1056E0001200C3F8100BD3F8100B2040C3F8100BB6
:1056F000886908B1C8688861C868C861D3F8100BA8
:1057000040F40020C3F8100BD3F8100BCC69C4F39D
:1057100012042043C3F8100B012A55D058E08E69BB
:10572000002ED3F8106932D06FF31206C3F8106957
:10573000D3F810692640C3F810698E69CC68A64278
:1057400000D98C61D3F8104944F40024C3F81049FF
:10575000D3F810498E69C6F312063443C3F81049D2
:10576000012A22D000EB4512D2F8003943F004435D
:10577000C2F800398A6932B3D0F83428097801F0C8
:105780000F03012199400A43C0F8342826E026403F
:10579000C3F81069D3F8104944F40024C3F8104941
:1057A000D3F810496FF31204D8E7496919B100EB37
:1057B0004512C2F8141900EB4510D0F8001941F059
:1057C0000441C0F8001909E0086908B1C3F8140BD6
:1057D000D3F8000B40F00440C3F8000B002070BD6C
:1057E000FFFF07E010B5036C134CA34203D9D0F8B8
:1057F000003B002B1EDB0023C0F8103BD0F8103B11
:1058000043F40023C0F8103BD0F8103B43F01803DA
:10581000C0F8103BD0F8103B43F0C043C0F8103B39
:10582000012907D1C0F8142BD0F8001B41F08021CA
:10583000C0F8001B002010BD0A30544F4A780B7886
:10584000012A00EB43100BD0D0F8002B22F40012F9
:10585000C0F8002B0979032914D0022912D017E0CF
:10586000D0F8002922F40012C0F800290979032990
:1058700001D002290CD1D0F8001941F08051C0F8B4
:10588000001905E0D0F8001B41F08051C0F8001B62
:10589000002070470A784B78D1B200EB4110012B01
:1058A00012D0D0F8001B002906DB2AB1D0F8001B6B
:1058B00021F08041C0F8001BD0F8001B41F400111A
:1058C000C0F8001B00207047D0F80019002906DB43
:1058D0002AB1D0F8001921F08041C0F80019D0F8A1
:1058E000001941F40011C0F80019EBE7F8B50C7885
:1058F0004F78764DE3B26FF0604600EB4313012F13
:1059000027D0D3F8104B6FF31204C3F8104BD3F821
:10591000104B2C40C3F8104B8D69002D75D0CC680E
:1059200025446D1EB5FBF4F5ADB26C43CC61D3F8E4
:10593000104B06EAC5452C43C3F8104BD3F8104B67
:10594000CD69C5F312052C43C3F8104B012A71D061
:10595000A4E08F691FB3D3F810796FF31207C3F86F
:105960001079D3F810792F40C3F810798F69CD687A
:105970002F447F1EB7FBF5F506EAC545D3F810693D
:105980003543C3F81059D3F810598E69C6F312067F
:105990003543C3F810590D79012D10D01BE0D3F811
:1059A00010692E40C3F81069D3F8105945F400254A
:1059B000C3F81059D3F810596FF3120509E0D3F862
:1059C000105925F0C045C3F81059D3F8105945F0C7
:1059D0000055C3F81059012A18D000EB4413D3F82E
:1059E000004944F00444C3F800490C79012C2FD03D
:1059F0008A6962B3D0F83428097801F00F030121D5
:105A000099400A43C0F834285EE036E04A691AB18A
:105A100000EB4413C3F81429097901290FD1D0F8F8
:105A20000818C90500EB4411D1F8002903D442F04D
:105A3000005202E02EE042F08052C1F8002900EB53
:105A40004410D0F8001941F00441C0F800193BE0BF
:105A5000D0F80848E405D3F8004902D444F00054D3
:105A600001E044F08054C3F8004900920A8B93B2DD
:105A70000A78096900F0D0F926E0D3F8104BCD6818
:105A8000C5F312052C43C3F8104BD3F8104B44F464
:105A9000002459E70A690AB1C3F8142B09790129CE
:105AA0000CD1D0F80808C005D3F8000B02D440F0A0
:105AB000005001E040F08050C3F8000BD3F8000B19
:105AC00040F00440C3F8000B0020F8BDFFFF07E0E2
:105AD00038B50022009213464D780A7842F21074CD
