:020000040800F2
:10000000D84B00205D020008E32E0008192A0008E2
:10001000E12E00088D030008F53400080000000000
:100020000000000000000000000000009D0100082A
:100030001105000800000000F9010008152F000854
:1000400077020008770200087702000877020008AC
:10005000770200087702000877020008770200089C
:10006000770200087702000877020008770200088C
:100070005904000877020008770200087702000898
:10008000770200087702000877020008770200086C
:100090009103000877020008770200087702000841
:1000A000770200087702000877020008770200084C
:1000B000770200087702000877020008770200083C
:1000C000770200087702000877020008770200082C
:1000D00077020008D134000877020008DD340008F8
:1000E000770200087702000877020008770200080C
:1000F00077020008E52F0008770200087702000861
:1001000077020008770200087702000877020008EB
:1001100077020008770200087702000877020008DB
:1001200077020008650400087104000877020008DF
:1001300077020008770200087702000877020008BB
:100140009D03000877020008770200087702000884
:10015000770200087D04000889040008E9340008DB
:10016000770200087702000877020008770200088B
:1001700077020008770200087702000800000000FC
:100180007702000877020008DFF80CD000F0ECF8E6
:1001900000480047B9390008D84B00202C4B19689B
:1001A0000868B0E8F04F80F30988BFF36F8F4FF015
:1001B000000080F3118870470000000008480068C4
:1001C000006880F308884FF0000080F3148862B65E
:1001D00061B6BFF34F8FBFF36F8F00DF00BF00BF6B
:1001E00008ED00E0DFF80C00016841F470010160E7
:1001F000704700BF88ED00E0EFF30980BFF36F8F19
:10020000134B1A681EF0100F08BF20ED108A20E96A
:10021000F04F106009B44FF0500080F31188BFF325
:100220004F8FBFF36F8F03F093FF4FF0000080F309
:10023000118809BC19680868B0E8F04F1EF0100F6B
:1002400008BFB0EC108A80F30988BFF36F8F704746
:1002500020000020EFF3058070470000064880472B
:1002600006480047FEE7FEE7FEE7FEE7FEE7FEE79B
:10027000FEE7FEE7FEE7FEE7D52F0008890100084C
:100280002DE9F05F0546002092469B4688460646CB
:10029000814640241BE0284641464746224600F05E
:1002A00053F853465A46C01A914110D31146184686
:1002B000224600F03AF82D1A67EB01084F46224615
:1002C0000120002100F031F817EB00094E41201EFB
:1002D000A4F10104DFDC484631462A464346BDE826
:1002E000F09F40EA01039B0703D009E008C9121FF1
:1002F00008C0042AFAD203E011F8013B00F8013BE0
:10030000521EF9D27047D2B201E000F8012B491E0B
:10031000FBD270470022F6E710B513460A460446A2
:100320001946FFF7F0FF204610BD202A04DB203AD3
:1003300000FA02F1002070479140C2F1200320FA38
:1003400003F3194390407047202A04DB203A21FA36
:1003500002F00021704721FA02F3D040C2F12002DE
:100360009140084319467047064C074D06E0E06887
:1003700040F0010394E8070098471034AC42F6D3EC
:10038000FFF706FF2848000848480008FEE700007D
:10039000014800F056BA0000E8020020014800F0D1
:1003A00050BA0000100300200A88C2F30A02A2F526
:1003B000806202804A788B78D20842EA4312C2F304
:1003C0000A02A2F5806242808A78CB78920942EADA
:1003D00083020B7942EA8322C2F30A02A2F5806209
:1003E00082800A794B79520842EAC312C2F30A02A8
:1003F000A2F58062C2804A79920982724A79C2F378
:100400000112C272CA8882810A89C2814A89028223
:100410000A7B82744A7BC274CA898282098AC1F3C8
:100420000A01A1F5806101817047000000B587B025
:1004300000280CD000290AD0009200220292CDE9B7
:100440000321024606AB6946024800F09BF807B05C
:1004500000BD0000E8020020014800F0E1BC0000FF
:10046000F4050020014800F0DBBC00005406002029
:10047000014800F0D5BC000034050020014800F020
:10048000CFBC0000B4060020014800F0C9BC000049
:100490009405002001681823CAB2103AB2FBF3F2A7
:1004A000054B6FF30901032A9B5CC36500D9091D45
:1004B0008165084670470000FC44000810B50146FD
:1004C00000208B698A6A4FF0C07453B1B3F5005FA6
:1004D00015D072B1012A0CD0022A0AD0032A09D100
:1004E00004E01AB1012A06D0022A03D1C96AC9015F
:1004F00000D5012010BDC96AA142FAD010BD002A62
:10050000F7D0012AF2D0022AF3D0032AF3D010BD8B
:10051000704772B6FEE7000010B558B1084C491E8E
:100520000BD310F8013B5340DBB234F8133083EAAD
:100530001222F4E74FF6FF7010BD104610BD000008
:100540001C46000810B5054C04E000BF10F8013B44
:100550005340E25C491EF9D2104610BD1C4500080C
:1005600090F82020012A07D0022A05D0416A41F4E0
:100570008021416201207047006842690A4342615C
:1005800000207047F0B590F820500468A468012D51
:1005900005D0022D03D0416A41F4802153E014F0CC
:1005A000406F01D1E5004BD5C4F30164022C03D99F
:1005B000416A41F4000146E00125A5401D608D68B7
:1005C0004FF4C0739DB1CE6835434E6845EAC60509
:1005D000066803EB0417F5514FF4C275076805EB85
:1005E00004150E697E51097D012905D009E00E88A8
:1005F000CD6845EA4655EBE701684E5946F48076EA
:100600004E511179D2F805504FF4C67641EA0525CE
:10061000016806EB04168D511178D2F801204FF4D1
:10062000C47541EA0221026805EB041551510068C6
:1006300003EB0411425842F0010242500020F0BD89
:10064000416A41F4001141620120F0BD10B590F8FB
:100650002020012A07D0022A05D0416A41F48021D6
:100660004162012010BD3B48D0F8002242F0010257
:10067000C0F80022D0F8002222F47C52C0F80022F8
:10068000D0F800224B6A42EA0322C0F800220A7D19
:1006900002F01F0301229A40D0F81C329343C0F8A5
:1006A0001C32CB69B3B9D0F80C329343C0F80C328A
:1006B0008C894B6864F31F434C6900EBC404C4F895
:1006C00040320C890B6864F31F434C6900EBC4048F
:1006D000C4F84432CB69012B16D1D0F80C32134345
:1006E000C0F80C320C884B6864F31F434C6900EB74
:1006F000C404C4F840320C89CB6864F31F434C69CE
:1007000000EBC404C4F844328B69002BD0F80432E7
:100710000ED01343C0F804320B69002BD0F814320A
:1007200008D01343C0F81432096A012904D008E044
:100730009343EFE79343F5E7D0F81C121143C0F859
:100740001C12D0F8001221F00101C0F800120020A4
:1007500010BD000000640040704730B590F82040A4
:10076000012C05D0022C03D0416A41F480215DE0C8
:100770000468002955D02469A40754D04FF4D874D4
:10078000056804EB01142D5915F004059560056802
:100790002D594ED0ED08556005682C5904F002041F
:1007A000D4604FF4DA74056804EB01142D5905F098
:1007B0000F05156105682D59C5F307259561056875
:1007C0002C59240C54614FF4DC72046802EB0112C2
:1007D000A4581C700468A458240A5C700468A458C7
:1007E000240C9C700468A258120EDA704FF4DE726A
:1007F000046802EB0112A4581C710468A458240A6E
:100800005C710468A458240C9C710468A258120EF0
:10081000DA71006881B1016941F0200101610020B5
:1008200030BDE468A8E7416A41F40011416201204B
:1008300030BD6D0D1560AFE7C16841F02001C160AA
:10084000EDE72DE9F05F0546006800244669D0F821
:1008500004908768D0F80CB0D0F810A0D0F81880B9
:10086000F10748D0F90714D001218160B80703D5FA
:10087000284600F04EFA0CE0780702D54FF40064E9
:1008800007E0380702D54FF4805402E0284600F014
:100890003FFAF80516D529684FF480708860B805CE
:1008A00003D5284600F037FA0CE0780502D544F469
:1008B000005407E0380502D544F4804402E028469D
:1008C00000F028FAF80316D529684FF480308860C4
:1008D000B80303D5284600F020FA0CE0780302D5CF
:1008E00044F4004407E0380302D544F4803402E0C5
:1008F000284600F011FA300707D55FEACB6004D52F
:100900002968102044F40074C86070074FF008078D
:1009100007D55FEA0B7004D52868C760284600F049
:1009200099F9B00706D52868C068800702D0284624
:1009300000F092F9700607D55FEACA6004D529680D
:10094000102044F480640861B00607D55FEA0A709D
:1009500004D528680761284600F0AAF9F00606D5F4
:1009600028680069800702D0284600F0A2F9B00389
:1009700008D55FEAC96005D5296810204860284677
:1009800000F098F9F00307D55FEA097004D52868EC
:100990004760284600F0C2F9300446D55FEA497046
:1009A00040D5F00504D55FEAC87001D044F00104D9
:1009B000B00504D55FEA887001D544F002047005E3
:1009C00004D55FEA487001D544F00404300529D508
:1009D00018F0700F26D008F07000402815D006DC03
:1009E000102809D020280AD0302816D10AE0502833
:1009F0000ED0602811D10EE044F008040DE044F060
:100A000010040AE044F0200407E044F0400404E04D
:100A100044F0800401E044F480742868816921F086
:100A200070018161296804204860002C05D0686A43
:100A3000204368622846FFF78FFEBDE8F09F70B53F
:100A4000040003D094F8200010B104E0012070BD30
:100A5000204600F081F82068016841F00101016042
:100A600000F028FC0546052604E000F023FC401BAE
:100A70000A2811D820684068C007F6D020680168AD
:100A800021F00201016000F015FC05460BE000F0CA
:100A900011FC401B0A2806D9606A40F400306062ED
:100AA00084F82060D2E7206840688007EFD4207E79
:100AB0000128206801683DD021F080010160607E3E
:100AC00001282068016838D021F040010160A07E33
:100AD00001282068016833D021F020010160E07E08
:100AE0000128206801682ED041F010010160207FAC
:100AF00001282068016829D021F008010160607F89
:100B000001282068016824D021F004010160D4E9A3
:100B100002010843D4E90412114308436168491EE5
:100B200008432168C86100206062012084F8200029
:100B3000002070BD41F08001C0E741F04001C5E7F1
:100B400041F02001CAE721F01001CFE741F0080190
:100B5000D4E741F00401D9E7F0B587B00446142189
:100B60006846FFF7D7FB364B3648DFF8D0E0196808
:100B7000D4F800C0334A0325022609271030002488
:100B8000491CF44522D11960012907D1016841F0BF
:100B900000710160006800F000700590106840F07E
:100BA000080010601068CDE9005600F00800CDE99B
:100BB000047069462448CDE9024500F07DFA002220
:100BC0000521142000F014FC142032E0DFF87CE052
:100BD000F44530D1D0F800C04CF0806CC0F800C0B3
:100BE000D0F800C001290CF0806CCDF814C0196059
:100BF00007D1016841F000710160006800F00070E9
:100C00000590106840F002001060106802AB00F020
:100C1000020005906020CDE9000683E8B000694637
:100C20000B4800F049FA00220521402000F0E0FBCB
:100C3000402000F0CFFB07B0F0BD00000064004092
:100C40000400002030380240000C024000680040E0
:100C5000000402407047000010B58AB004466B469D
:100C600002AA0021FFF779FD0F492068884214D1BC
:100C70000298012808D002280AD003280FD004289F
:100C80000BD16946094806E008486946303802E059
:100C900006486946203801F089FD0AB010BD0348B6
:100CA00069461038F7E7000000640040C84700209C
:100CB000704770477047000070B5044690F82000F8
:100CC000012804D0606A40F40020606218E002202D
:100CD00084F820002068016821F00101016000F023
:100CE000E9FA05460EE000BF00F0E4FA401B0A28CE
:100CF00008D9606A40F400306062052084F8200062
:100D0000012070BD20684068C007EDD1606270BDF1
:100D1000704770477047704770477047704710B50D
:100D2000040002D0607910B106E0012010BD00205F
:100D30002071204600F004F801206071002010BDF1
:100D400008B500680649884208D10648016841F4A0
:100D500080510160006800F48050009008BD0000E0
:100D600000300240303802402DE9F0410446876DE2
:100D700000F0A0FA064694F835000025022806D0B7
:100D80008020606584F834500120BDE8F08120683F
:100D9000016821F0160101602068416921F080019D
:100DA0004161206C08B9A06C20B12068016821F075
:100DB000080101602068016821F0010101600CE078
:100DC00000F078FA801B052807D9202060650320F1
:100DD00084F8350084F83450D7E720680068C007ED
:100DE000EED194F85C103F208840B860012084F870
:100DF000350084F834500020C7E790F835100229F8
:100E000003D08021416501207047052180F835100D
:100E10000068016821F001010160002070470000B6
:100E20002DE9F84304464FF00009CDF800906348DF
:100E30004FF41651A56D0068B0FBF1F72E6894F8D9
:100E40005C10082000FA01F131420FD021680A68D5
:100E500052070BD50A6822F004020A6094F85C106D
:100E60008840A860606D40F00100606594F85C10F7
:100E70004FF0010808FA01F0304208D021684969B2
:100E8000090604D5A860606D40F00200606594F822
:100E90005C1004208840304208D021680968890726
:100EA00004D5A860606D40F00400606594F85C10A3
:100EB00010208840304218D021680968090714D5ED
:100EC000A86020680168490304D50068000308D5BC
:100ED000A16C07E00168C90503D4016821F008018D
:100EE0000160216C09B12046884794F85C102020ED
:100EF0008840304231D021680968C9062DD5A860E4
:100F000094F8350005282068016806D0490347D5C4
:100F1000006800031DD4616C1CE021F01601016023
:100F20002068416921F080014161206C08B9A06C02
:100F300020B12068016821F00801016094F85C107C
:100F40003F208840A86084F8358084F83490216D73
:100F50001FE0E16B09B120468847606D00282BD067
:100F6000606DC00714D0052084F835002068016842
:100F700021F0010101600098401C0090B84203D8A4
:100F800020680068C007F6D184F8358084F8349072
:100F9000E16C002910D001B02046BDE8F0430847BD
:100FA0000168C905D5D4016821F01001016084F8F9
:100FB000358084F83490CCE7BDE8F8831C0000202D
:100FC0002DE9F041044600F075F906465CB10220B7
:100FD00084F83500002584F834502068016821F039
:100FE000010101600DE00120BDE8F08100F062F92F
:100FF000801B052805D920206065032084F8350072
:10100000F2E720680068C007F0D122681168204824
:101010000140D4E901031843D4E9033633431843AC
:1010200063691843A3691843E3691843236A1843A3
:101030000843616A042903D1D4E90B131943084317
:10104000106020684069666A20F0070130460E4350
:10105000012704280CD1A06A0643E06A40B120466B
:10106000FFF72CFA20B14020606584F83570BAE7AC
:10107000206846612046FFF70DFA94F85C203F2176
:1010800091408160656584F835700020ACE7000010
:101090003F8010F070B5044600F00CF90546601C66
:1010A00002D004480078044400F004F9401BA04238
:1010B000FAD370BD100000202DE9F84FDFF8BCA175
:1010C0000022012503264FF00F090AF1040BAAF1B3
:1010D000040E00BF0B6805FA02F42340A34270D14E
:1010E0000F7907F00307012F01D0022F16D187686F
:1010F0004FEA420806FA08FC27EA0C07D1F80CC0B0
:101100000CFA08FC4CEA070CC0F808C04768A74373
:101110000C79C4F3001494403C4344600C79E443DC
:10112000A4070AD0C4684FEA420C06FA0CF7BC4385
:101130008F6807FA0CF72743C7600C7904F00304A3
:10114000022C12D1D40800EB840CDCF820405707A5
:10115000FF0E09FA07F824EA0804D1F8108008FA0B
:1011600007F848EA0408CCF8208004684FEA420CEB
:1011700006FA0CF7BC430F7907F0030707FA0CF7E0
:10118000274307604C6814F4403F70D03C4C2768FC
:1011900047F480472760246822F0030704F4804462
:1011A0000094384C07EB040CDCF8084897074FEA2A
:1011B000177809FA08F7BC43334FB84202D1002729
:1011C00024E054E0314FB84201D101271EE0304FF6
:1011D000B84201D1022719E02E4FB84201D10327AE
:1011E00014E02D4FB84201D104270FE02B4FB84235
:1011F00001D105270AE02A4FB84201D1062705E0B0
:10120000284FB84201D1072700E0082707FA08F75E
:101210002743CCF80878DAF800405746D1F804C0E4
:101220009C435FEACC2C00D51C433C60DBF80040BB
:101230005F46D1F804C09C435FEA8C2C00D51C4368
:101240003C60DEF800407746D1F804C09C435FEA7A
:101250008C3C00D51C433C60084F083F3C68D1F8EB
:1012600004C09C435FEACC3C00D51C433C60521C4C
:10127000102AFFF42FAFBDE8F88F0000083C0140B2
:1012800044380240003001400000024000040240A7
:1012900000080240000C024000100240001402400E
:1012A00000180240001C02400AB181617047090425
:1012B000FBE7000001488068704700001000002034
:1012C0000248816802781144816070471000002054
:1012D0000B4810B5016841F400710160016841F4E8
:1012E00080610160016841F480710160032000F0B9
:1012F0009FF80F2000F006F800F050F8002010BD15
:10130000003C024030B505461F4887B00024016804
:1013100041F480710160006806A900F480700090BB
:1013200001A800F031F90498A8B100F04DF940008F
:101330001649174AB0FBF1F11648491E026040F207
:10134000E732C0E90324C0E90114846100F034FCF1
:10135000040003D015E000F037F9E9E70D4800F08C
:1013600089FC04000DD12D2000F034F8102D07D297
:10137000002229462D2000F03BF80748056000E0D8
:10138000012407B0204630BD4038024040420F00E3
:101390000020004014070020140000200C4882B0F8
:1013A000016841F480410160006800F480400090D1
:1013B0000748001F016841F0805101600068002269
:1013C00000F0805000900F21901E02B000F010B885
:1013D00044380240002809DB00F01F02012191403F
:1013E0004009800000F1E020C0F8001170470000C3
:1013F000F0B40E4B1B680C46C3F30223C3F1070580
:10140000042D00D90425191D072901D2002300E06D
:10141000DB1E012606FA05F1491E214099409E4037
:10142000761E16403143F0BC02F097B80CED00E098
:10143000064900F0070208684FF6FF03184040EA2B
:101440000220034A10430860704700000CED00E0E2
:101450000000FA052DE9F0470E46050065D0DFF8DB
:101460001481D8F80000F7B200F00700B04207D2AC
:1014700088F80070D8F8000000F00700B04254D19E
:1014800028683D4C810712D5400703D5206840F4F9
:10149000E05020602878000703D5206840F46040C1
:1014A00020602068A96820F0F000084320602878B8
:1014B000C0072DD0304968680839012812D00228A9
:1014C00013D0032811D00968890700292DDA216873
:1014D00021F0030101432160FFF7ECFE814641F258
:1014E000883A0EE009688903EFE709688901ECE7AB
:1014F000FFF7E0FEA0EB0901514502D90320BDE84A
:10150000F0872068696800F00C00B0EB810FEFD124
:10151000D8F80010404601F00701B14207D9077022
:10152000006800F00700B04201D00120E7E728780A
:10153000400705D52068E96820F4E05008432060A2
:101540002878000706D52068296920F4604040EA21
:10155000C100206000F058F82168084AC1F3031167
:10156000515CC8400649086006480068FFF7CAFE9B
:101570000020C4E7003C024008380240044500084F
:101580001C000020140000200F2202600C4A136887
:1015900003F003034360136803F0F00383601368F0
:1015A00003F4E053C36012684FF4E05303EAD2023D
:1015B00002610448006800F00700086070470000FE
:1015C00008380240003C02400448054900680968A8
:1015D000044AC1F38221515CC84070471C000020BE
:1015E00008380240144500080448054900680968A5
:1015F000044AC1F34231515CC84070471C000020CE
:101600000838024014450008154810B5006810F06D
:101610000C02144813D01449042A0FD0082A0ED102
:101620000F4C241F2268236802F03F025B0207D59B
:101630002068C0F38810A0FB010106E0084610BD39
:101640002168C1F38811A1FB00010023FEF718FEF9
:101650002168C1F30141491C4900B0FBF1F010BD04
:10166000083802400024F400001BB7002DE9F84FB1
:1016700004006ED02078DFF84C93C007A9F1040570
:101680004AD009F104000168C1F38101012908D0A1
:101690000068C0F3810002280AD1D9F80000400296
:1016A00006D52868800337D560680028E1D033E08C
:1016B0006068B0F5803F10D0B0F5A02F286810D03A
:1016C00020F480302860286820F48020286060683A
:1016D000A8B1FFF7EFFD06460DE0286840F4803022
:1016E000F4E740F480202860F7E700BFFFF7E2FD51
:1016F000801B642873D828688003F7D50CE0FFF7B7
:10170000D9FD064605E000BFFFF7D4FD801B642825
:10171000F0D828688003F7D42078DFF8AC828007FF
:101720004FF0000A3ED5A748001D016811F00C0FCC
:1017300008D00068C0F3810002280BD1D9F800005E
:10174000400207D42868800716D5E068012800D138
:1017500012E033E1E068B8B10120C8F80000FFF7FB
:10176000A9FD064605E000BFFFF7A4FD801B022887
:10177000C0D828688007F7D52868216920F0F800CC
:1017800040EAC10028600DE0C8F800A0FFF792FD14
:10179000064604E0FFF78EFD801B02281FD828684C
:1017A0008007F7D42078000722D5864F87486169E3
:1017B000703771B101210160FFF77CFD064604E03E
:1017C000FFF778FD801B022809D838688007F7D515
:1017D0000EE0C0F800A0FFF76DFD064605E082E0D0
:1017E000FFF768FD801B02287DD838688007F7D492
:1017F0002078400768D5DFF8CCB100270BF13C0B0F
:10180000DBF80000C0000BD4DBF8001041F0805181
:10181000CBF80010DBF80000012700F080500090AA
:101820006B4E3068C00510D4306840F48070306072
:10183000FFF740FD009005E0FFF73CFD0099401ADE
:10184000022850D83068C005F6D55E4EA0686C36C8
:1018500001280FD00528306810D020F0010030603A
:10186000306820F004003060A068B8B1FFF722FDB6
:1018700000900FE0306840F00100F4E740F0040011
:101880003060F7E7FFF716FD0099411A41F2883002
:10189000814266D830688007F4D50EE0FFF70AFD74
:1018A000009007E0FFF706FD0099411A41F28830E9
:1018B000814256D830688007F4D42FB1DBF800108D
:1018C00021F08051CBF80010A069C8B33D49091D33
:1018D0000968C1F3810102294AD00228504607D085
:1018E000C8F8600000E03CE0FFF7E4FC04463BE0A1
:1018F0004746C8F86000FFF7DDFC064605E000BF7C
:10190000FFF7D8FC801B02282BD828688001F7D469
:10191000D4E907010843A16A2E4A490802EB0141B4
:10192000626A41EA8211084394F82C1040EA01618E
:10193000C9F8001001203866FFF7BCFC044606E039
:101940003EE000BFFFF7B6FC001B022809D828685C
:101950008001F7D534E000BFFFF7ACFC001B022884
:1019600002D90320BDE8F88F28688001F4D427E06D
:101970000128F7D0D9F80000E26900F48001914213
:101980001CD1226A00F03F01914217D147F6C07185
:10199000626A0140B1EB821F10D1A26A4FF0FF339F
:1019A00000F4403103EB5202B1EB024F06D194F840
:1019B0002C1000F07060B0EB016F01D00120D1E776
:1019C0000020CFE70438024000004742800E474223
:1019D000007000400000FFFF70B5040009D0606A8D
:1019E000002540B125616561A56294F8510040B1C0
:1019F0000CE0012070BD6068B0F5827FF4D0E56135
:101A0000F2E784F85050204600F044F8022084F8B1
:101A100051002068016821F040010160A0882189FF
:101A200000F4827001F404410843A18901F40061CB
:101A30000843217C01F002010843217D01F00101EE
:101A40000843218B01F400710843217F01F0380124
:101A5000084394F8201001F080010843218D01F41F
:101A60000051084321680860A069042101EA104080
:101A700094F8241001F010010843216848602068A0
:101A8000C16921F40061C1616565012084F85100DC
:101A9000002070BDF0B587B0044614216846FEF7FB
:101AA00039FC1C492068884232D11B480024016857
:101AB00041F480510160006800F4805005901648A0
:101AC0001438016841F002010160016801F002016F
:101AD0000591016841F0010101600068022500F0F4
:101AE000010005901820CDE9000502AA032605276C
:101AF00082E8D00069460948FFF7DEFA8020CDE988
:101B0000000502AA694682E8D0000548FFF7D4FA2A
:101B100007B0F0BD003001404438024000040240EC
:101B2000000002407047704770B590F83C20012AD1
:101B300032D0012480F83C40022280F83D20036826
:101B40005A689D6822F070060A6832435A60134B47
:101B500002689A4214D0B2F1804F11D0104B9A42D1
:101B60000ED0104B9A420BD00F4B9A4208D00F4B1D
:101B70009A4205D00E4B9A4202D00E4B9A4204D1A3
:101B8000496825F080031943916080F83D400021A9
:101B900080F83C10084670BD022070BD0000014076
:101BA0000004004000080040000C00400004014018
:101BB000004001400018004010B5040003D094F824
:101BC0003D0010B107E0012010BD002084F83C006A
:101BD000204600F01FF8022084F83D00211D2068F7
:101BE00001F006FA012084F8460084F83E0084F8EB
:101BF0003F0084F8400084F8410084F8420084F8F3
:101C0000430084F8440084F8450084F83D00002037
:101C100010BD000008B5134A01681348914207D16E
:101C2000016841F004010160006800F0040009E06F
:101C30000E4A914208D1016841F008010160006834
:101C400000F00800009008BD09488142FBD1064819
:101C5000001D016841F400310160006800F40030AB
:101C6000F0E700000008004040380240000C00404F
:101C70000044014090F83D10012901D00120704737
:101C8000022180F83D100168CA6842F00102CA6072
:101C900000681149884214D0B0F1804F11D00F492B
:101CA00088420ED00E4988420BD00E49884208D097
:101CB0000D49884205D00D49884202D00C4988421E
:101CC00004D1816801F00701062903D0016841F0C1
:101CD0000101016000207047000001400004004045
:101CE00000080040000C004000040140004001409A
:101CF0000018004070B5044690F83C00002501280B
:101D000017D0012684F83C60022084F83D0020684A
:101D1000826822F0770222F47F42826008685028AD
:101D200038D00DDC20284FD005DC90B3102811D11D
:101D30004AE0022070BD302846D040280AD13BE05E
:101D400060282FD070280DD0B0F5805F03D0B0F59B
:101D5000005F12D0012584F83D60002084F83C002B
:101D6000284670BDCB68D1E90121206801F0A4F9B3
:101D70002068816841F0770109E0CB68D1E9012151
:101D8000206801F099F92068816841F48041816000
:101D9000E1E719E0CA684968206801F061FA50215A
:101DA000206806E0CA684968206801F06AFA602184
:101DB000206801F08BF9CEE7CA684968206801F015
:101DC0004FFA40212068F4E7226801461046F0E708
:101DD000704770B50446006801694FF00005C943BB
:101DE000890715D4C168C943890711D4E91E016167
:101DF00001202077206880698007204602D0FFF705
:101E0000E7FF04E000F0F2F8204600F084F92577BF
:101E100020680169C943490717D4C168C943490704
:101E200013D46FF0040101610220207720688069DB
:101E300010F4407F204602D0FFF7CAFF04E000F014
:101E4000D5F8204600F067F9257720680169C94375
:101E5000090716D4C168C943090712D46FF00801F5
:101E60000161042020772068C0698007204602D0E5
:101E7000FFF7AEFF04E000F0B9F8204600F04BF9A0
:101E8000257720680169C943C90617D4C168C943C9
:101E9000C90613D46FF01001016108202077206873
:101EA000C06910F4407F204602D0FFF791FF04E0A4
:101EB00000F09CF8204600F02EF925772068016993
:101EC000C943C90708D1C168C943C90704D1891EDC
:101ED0000161204600F020F920680169C943090624
:101EE00009D4C168C943090605D46FF080010161B6
:101EF0002046FFF717FE20680169C943490609D447
:101F0000C168C943490605D46FF04001016120460C
:101F100000F00CF920680169C94389060BD4C16837
:101F2000C943890607D46FF0200101612046BDE84E
:101F30007040FFF7F8BD70BD10B586B0044614219F
:101F40006846FEF7E7F92368214C00222148022168
:101F5000A3420FD1036843F008030360006800F058
:101F60000800059048038DE80700CDE90321694684
:101F7000194814E0194CA34215D1026842F08002BE
:101F800002600068049100F0800005904FF4E0507A
:101F9000CDE900010120CDE9020169461048FFF7B3
:101FA0008BF806B010BD0F4CA342FAD1036843F082
:101FB00020030360006800F02000059040208DE8B9
:101FC00007000320CDE9032069460748E7E7000042
:101FD0000008004030380240000C0240000C004075
:101FE000001C02400044014000140240704770B5DC
:101FF000044690F83C0000260D4601280FD0012031
:1020000084F83C006AB1042A1DD0082A2FD00C2A7B
:102010003FD00126002084F83C00304670BD0220ED
:1020200070BD206801F05AF82068816941F008010C
:1020300081612068816921F00401816120688169E2
:102040002A69114311E0206801F078F8206881695D
:1020500041F4006181612068816921F480618161BE
:10206000206881692A6941EA02218161D2E72068FA
:1020700001F09AF82068C16941F00801C161206847
:10208000C16921F00401C1612068C1692A69114355
:1020900011E0206801F0BCF82068C16941F40061DA
:1020A000C1612068C16921F48061C1612068C16992
:1020B0002A6941EA0221C161ACE710B5040003D0EE
:1020C00094F83D0010B107E0012010BD002084F815
:1020D0003C00204600F01EF8022084F83D00211D3F
:1020E000206800F085FF012084F8460084F83E0057
:1020F00084F83F0084F8400084F8410084F84200EE
:1021000084F8430084F8440084F8450084F83D00D6
:10211000002010BD7047704700680349884201D114
:10212000FFF7CEB8704700000020004070477047AE
:102130007047000030B401680A68D2065ED50A68AC
:102140004968816B354A096891420AD0344A914204
:1021500007D0324A6032914203D0314A6032914214
:1021600001D1202222E02D4B1833DA1499421DD0E0
:102170002B4B1833994219D0284B7833994215D0FC
:10218000274B7833994211D0244B92023033994235
:102190000CD0234B3033994208D0204B90339942D6
:1021A00004D01F4B9033994200D092010B6823F06A
:1021B00001030B60816B1A4B09684833994202D9BD
:1021C0001749091F05E0154BA833994203D9144953
:1021D00008390A6008E0114C104B4834103BA1420A
:1021E00001D9DA6000E09A60826B818D12685160DB
:1021F000816B09680A6842F001020A600949884255
:1022000004D1816A30BC0848FEF7CEB8074988423D
:1022100002D130BC01F0ECB930BC70471060024014
:1022200010640240AC0400204C440020F004002064
:10223000F8B5016804460868CA684B6910F00F0FCA
:102240004FF0000559D003F0010602F490773743B0
:1022500065D0C10705D0D10503D5216C41F001013E
:102260002164410705D5D90703D0216C41F0020153
:102270002164810705D5D90703D0216C41F0040101
:102280002164010707D502F02001314303D0216CFE
:1022900041F008012164216C00293AD0800604D560
:1022A000900602D5204601F02DF820684069216C87
:1022B000C0F38010090700D460B3204600F0FBFF94
:1022C00020684069400621D52068143050E8001F7E
:1022D00021F0400140E80012002AF5D1A06BA8B11E
:1022E0006C490165A06BFEF788FD002811D0A06B3A
:1022F000016D01B0BDE8F040084783060FD5930695
:102300000DD52046BDE8F84000F0FCBF2046FFF7A1
:102310000FFFF8BD2046FFF70BFF2564F8BD266BC5
:102320002023012E79D1C60677D5D60675D5086843
:10233000486800904869400640D5A16B086840682D
:102340000004000CEAD0A28D8242E7D9E085C8697A
:10235000B0F5807F2DD020680C3050E8001F21F4AC
:10236000807140E80012002AF5D12068143050E84E
:10237000001F21F0010140E80012002AF5D1206879
:10238000143050E8001F21F0400140E80012002AFC
:10239000F5D184F83E30256320680C3050E8001FEA
:1023A00021F0100140E80012002AF5D1A06BFEF7E1
:1023B000DBFCA08DE18D401A81B229E0A08DE18D7A
:1023C000401A81B2E08D0028A8D00029A6D020684C
:1023D0000C3050E8002F22F4907240E80026002EC6
:1023E000F5D12068143050E8002F22F0010240E8B7
:1023F0000026002EF5D184F83E30256320680C308D
:1024000050E8002F22F0100240E80023002BF5D105
:102410002046FFF78CFEF8BDFFE705062BD5150615
:1024200029D594F83D002128F5D1A068B0F5805F4A
:1024300001D12069B0B1206A411C21622168007875
:102440004860E08C401E0004000CE084E3D120686A
:10245000C16821F08001C1602068C16841F040017D
:10246000C160D8E7206A0088C0F308004860206A8D
:10247000801C2062E5E74006CDD55006CBD5CA6862
:10248000204622F04002CA6084F83D3000F06FF927
:10249000C1E70000A732000870B5040004D094F82A
:1024A0003D00002510B106E0012070BD84F83C50CD
:1024B000204600F023F8242084F83D002068C168FD
:1024C00021F40051C160204600F07CFF20680169C2
:1024D00021F4904101612068416921F02A014161A4
:1024E0002068C16841F40051C1602564202084F84F
:1024F0003D0084F83E00002070BD00002DE9F04F43
:1025000087B0044614216846FDF704FF8C48DFF8C5
:102510002C821438D4F800C0894A022603210723EC
:10252000002507154FF0006A4FF4807BC4456BD13E
:10253000D2F800C04CF0100CC2F800C0126802F0D3
:1025400010020592026842F002020260026802F084
:1025500002020592026842F00102026000688846A9
:1025600000F0010005908020CDE900060DF1080C77
:1025700099468CE8200369467248FEF79DFD3002BB
:10258000CDE900060DF1080C69468CE820036E4881
:10259000FEF792FD6E4E6D48D0463060C6E901A54B
:1025A000C6E90357B94606F1180C5F464FF4403AA6
:1025B00075618CE8A00430467562FEF701FD08B134
:1025C000FDF7A7FFA663B463614E604860367830BC
:1025D000E6E802084020A6E8210246F8145906F170
:1025E000180080E8A0045A4875626030FEF7E8FCE5
:1025F00008B1FDF78EFF6663002205212520B46334
:10260000FEF7F6FE25203DE0DFF84881C4453ED1C7
:102610004B4A121FD2F800C04CF4802CC2F800C004
:10262000126802F480220592026842F004020260FD
:102630000068029500F004000590CDE903134FF403
:102640004060CDE9000669464348FEF735FD404E3F
:102650004248C0363060C6E901A5C6E90357756136
:10266000C6E9065B356230467562FEF7A9FC08B123
:10267000FDF74FFFA663002205212720B463FEF774
:10268000B7FE2720FEF7A6FE07B0BDE8F08F344B5B
:102690009C45F9D1136843F020031360126802F0DF
:1026A00020020592026842F0400202600068029532
:1026B00000F0400005904FF48440CDE9000608206A
:1026C000CDE9031069462748FEF7F6FC1F48264E61
:1026D00018384FF020683060C6E90185C6E9035715
:1026E00075614FF40039B561C6E907593046756226
:1026F000FEF766FC08B1FDF70CFFA663B4631A4E43
:10270000124860366030E6E802084020A1C616484C
:1027100046F814596030B561C6E907597562FEF78D
:102720004FFC08B1FDF7F5FE666300220521472046
:10273000B463FEF75DFE4720A4E7000000100140EF
:10274000443802400004024000000240406402405D
:102750003405002000480040000802402860024084
:1027600000140140001802405406002070477047D2
:102770001CB50CA30528D3E90023CDE9002305D01F
:10278000062805D007280BD1FE2002E0FC2000E03F
:10279000FD208DF807000A4608216846FDF746FE31
:1027A0001CBD0000FFFFFFFFFFFFFF0070B50546E7
:1027B00008782860B1F801000C4640BA1021DFED1E
:1027C000120A9FED120A01F083FB85ED010AE07801
:1027D0002179000140EA11100C21DFED0D0A9FED77
:1027E0000D0A01F075FB85ED020A60792179F3EE9F
:1027F000020A40EA01100C21BBEE020A01F068FB5C
:1028000085ED030A70BD00000000BF420000BFC29A
:1028100000003442000034C22DE9F04180462DED25
:10282000088B10EE100A82B05849DFED592A9FED4F
:10283000593A884202D3B0EE620A06E010EE100A5E
:102840005549884201DBB0EE430A10EE900A534925
:102850009FED53AADFED53AA884202D3F0EE4A0A55
:1028600006E010EE900A5049884201DBF0EE6A0A59
:10287000B0EE608ADFED4DBA9FED4DBAB5EEC01AED
:10288000F1EE10FA02D8B0EE4B1A06E011EE100A83
:102890004849884201DBB0EE6B1AF5EEC01AF0EE43
:1028A000418AF1EE10FA02D8F0EE4B1A06E011EE72
:1028B000900A4149884201DBF1EE041A12EE100A37
:1028C0003E49B0EE619A884202D3BBEE022A06E08E
:1028D00012EE100A3A49884201DBB3EE022A1020B8
:1028E000F0EE429AB0EE431AF0EE620A00F0C6FE35
:1028F00007460C20B0EE6A1AF0EE4A0AB0EE480A1B
:1029000000F0BCFEB0EE4B8A06460C20B0EE6B1A0F
:10291000F0EE480AB0EE680A00F0B0FE05460C2062
:10292000B1EE041AF0EE480AB0EE490A00F0A6FE35
:1029300004460C20B3EE021AFBEE020AB0EE690A5E
:1029400000F09CFE390A8DF800108DF801703109F5
:102950008DF80210310141EA15218DF803108DF830
:10296000045021098DF80510210141EA10218DF84C
:1029700006108DF80700424608216846FDF756FD0F
:1029800002B0BDEC088BBDE8F08100000000BFC2C2
:102990000000BFC20000BF420000BF42000034C2BE
:1029A000000034C200003442000034420000FA4308
:1029B000000000000000FA430000A040000090C1A9
:1029C0000000904110B501242DED028B9FED118A7E
:1029D00021460520FFF7CCFE0520FEF75BFBB0EE9D
:1029E000480A2046B0EE402AF0EE401AB0EE401AF7
:1029F000F0EE400AFFF710FF21460720FFF7B8FE70
:102A00000520FEF747FB641C042CE1DDBDEC028BC6
:102A100010BD000000000000FEE700000F4810B5E8
:102A20000D4901600321416000214FF410228160B3
:102A3000C0E903124FF400124261017641768176BB
:102A4000C17601774177FDF7FAFF002803D0BDE892
:102A50001040FDF75EBD10BD00640040E80200209C
:102A60000F4810B50D4901600321416000214FF46A
:102A700010228160C0E903124FF400124261017616
:102A800041768176C17601774177FDF7D8FF00283E
:102A900003D0BDE81040FDF73CBD10BD006800400C
:102AA00010030020074910B5054808600846FEF7E6
:102AB00036F9002803D0BDE81040FDF72ABD10BD4F
:102AC00000300240080000201D4808B5016841F4AC
:102AD00080010160016801F480010091016841F406
:102AE000001101600068002200F400100090052130
:102AF0000C20FEF77DFC0C20FEF76CFC002205216B
:102B00003920FEF775FC3920FEF764FC0022052110
:102B10003A20FEF76DFC3A20FEF75CFC002205210E
:102B20004520FEF765FC4520FEF754FC00220521F8
:102B30004620FEF75DFCBDE808404620FEF74ABC93
:102B40003038024000B587B01C2206496846FDF7C0
:102B5000C8FB0021684600F066FF0349086007B023
:102B600000BD0000E044000800000020F0B587B080
:102B700014216846FDF7CEFB2C48016841F00201A4
:102B80000160016801F002010591016841F0400116
:102B90000160016801F040010591016841F0010107
:102BA0000160016801F001010591016841F008012F
:102BB0000160016801F008010591016841F004011C
:102BC0000160016801F004010591016841F0800194
:102BD0000160016801F080010591016841F0200168
:102BE00001600068124E00F02000059001221021C3
:102BF0003046FEF759FB0F4F012211463846FEF7CB
:102C000053FB01241020CDE900040225694630461B
:102C1000CDE90245FEF750FA009469463846019422
:102C2000CDE90245FEF748FA07B0F0BD3038024062
:102C30000000024000040240104810B50E49016037
:102C40004FF482714160002102228160C0E90312C9
:102C500001224261520282613822C0E907214162A9
:102C600081620A21C162FEF7B7FE002803D0BDE8E9
:102C70001040FDF74EBC10BD00300140380300206D
:102C800010B588B01C216846FDF744FB1448134971
:102C90000024C0E9001441F28731C0E90241046117
:102CA0008461FEF789FF08B1FDF733FC0C48FFF79C
:102CB00004FA08B1FDF72DFC6020CDE90004029470
:102CC0000022694606480494FFF791F908B1FDF720
:102CD00020FC0348FFF730F908B010BD0044014064
:102CE0002004002010B58EB00024079408940994A5
:102CF0000A940B941C2168460C94FDF70BFB1E48AC
:102D00001C4901605321C0E90114F921C0E90314F1
:102D100080218161FEF750FF08B1FDF7FAFB4FF407
:102D20008050079007A91448FEF7E4FF08B1FDF7AB
:102D3000F0FB1148FFF7C1F908B1FDF7EAFB0B946E
:102D40000BA90D480C94FEF7EFFE08B1FDF7E1FB6F
:102D50006020CDE9000402940822694606480494E4
:102D6000FFF745F908B1FDF7D4FB0348FFF7E4F896
:102D70000EB010BD000800409003002010B58EB0CA
:102D800000240794089409940A940B941C21684623
:102D90000C94FDF7BFFA26482449C0E900144FF609
:102DA000FF71C0E9024104618461FEF705FF08B1CB
:102DB000FDF7AFFB4FF48050079007A91C48FEF7C2
:102DC00099FF08B1FDF7A5FB1948FFF776F908B19F
:102DD000FDF79FFB0B940BA915480C94FEF7A4FE7E
:102DE00008B1FDF796FB6020CDE9000402940022B3
:102DF00069460F480494FFF7FAF808B1FDF789FB1C
:102E0000042269460A48FFF7F2F808B1FDF781FB92
:102E1000082269460648FFF7EAF808B1FDF779FB92
:102E20000348FFF789F80EB010BD0000000C004009
:102E3000D80300200C4810B50A4901604FF4E13175
:102E40004160002181600C22C160C0E904128161EF
:102E5000C161FFF721FB002803D0BDE81040FDF75A
:102E600058BB10BD00100140680400200C4810B58C
:102E70000A4901600B494160002181600C22C16058
:102E8000C0E904128161C161FFF706FB002803D08D
:102E9000BDE81040FDF73DBB10BD000000480040FC
:102EA000AC040020A08601000C4810B50A4901605E
:102EB0004FF4E1314160002181600C22C160C0E922
:102EC00004128161C161FFF7E7FA002803D0BDE871
:102ED0001040FDF71EBB10BD00140140F00400209F
:102EE000FEE7FEE72DED028B9FED098A0120B0EE93
:102EF000480AB0EE402AF0EE401AB0EE401AF0EE6A
:102F0000400AFFF789FC012000F081FDEEE7000098
:102F10000000000010B5502080F31188BFF34F8FE0
:102F2000BFF36F8F01F014FA18B104494FF08050CD
:102F30000860002080F3118810BD000004ED00E05F
:102F400030B593B030216846FDF7E4F914210CA8A0
:102F5000FDF7E0F91D480025016841F0805101604E
:102F6000006800F0805011901948016841F48041D8
:102F700001600068022400F480401190012000905C
:102F8000000401908001CDE9064006200890A820A9
:102F9000CDE9090404200B906846FEF767FB08B1F1
:102FA00072B6FEE70CA90F2081E831004FF4A05063
:102FB0000F904FF48050109005210CA8FEF74AFAAC
:102FC000002801D072B6FEE713B030BD4038024091
:102FD000007000400248016841F4700101607047D0
:102FE00088ED00E00148FEF7F4BE00001407002061
:102FF000F0B50268254C264D264E274F274B4FF043
:10300000804CA04209D0604507D0A84205D0B0420C
:1030100003D0B84201D0984204D122F0700E4A6821
:1030200042EA0E02A0421BD0604519D0A84217D038
:10303000B04215D0B84213D0984211D0184DA842D2
:103040000ED0184DA8420BD0174DA84208D0174DEE
:10305000A84205D0164DA84202D0164DA84203D171
:1030600022F44075CA682A434D6922F080022A433F
:1030700002608A68C2620A688262A04201D09842F5
:1030800001D10969016301214161F0BD00000140E6
:103090000004004000080040000C00400004014013
:1030A0000040014000440140004801400018004039
:1030B000001C00400020004010B5846842EA032252
:1030C00024F47F440A432243826010BD826822F0C8
:1030D00070020A4342F0070181607047F0B5026A4E
:1030E00022F001020262036A42688469124E24F0EF
:1030F00073050C682C4323F002058B682B430D4DA0
:10310000A84201D0B04205D123F00807CB683B4369
:1031100023F00403A84201D0B04205D14D6922F446
:10312000407215438A692A43426084614968416359
:103130000362F0BD0000014000040140F0B5026AE6
:1031400022F010020262026A436884690D6824F466
:10315000E64444EA05248D6822F0200242EA051282
:103160000F4D104EA84201D0B04206D1CF6822F0D8
:10317000800242EA071222F04002A84201D0B04287
:1031800007D14D6923F4406343EA85038D6943EA1F
:10319000850343608461496881630262F0BD000079
:1031A0000000014000040140F0B5026A22F4807280
:1031B0000262026A4368C46922F4007224F0730553
:1031C0000C68124E2C438D6842EA05220E4DA8422F
:1031D00001D0B04206D1CF6822F4006242EA072251
:1031E00022F48062A84201D0B04207D14D6923F495
:1031F000405343EA05138D6943EA05134360C461F4
:103200004968C1630262F0BD000001400004014052
:1032100030B5026A22F480520262046A4268C369CD
:103220000D6823F4E64343EA05238D6824F4005433
:1032300044EA0534084DA84202D0084DA84204D102
:103240004D6922F4804242EA85124260C3614968B6
:103250000164046230BD0000000001400004014030
:1032600010B5036A046A24F001040462846924F03E
:10327000F00444EA021423F00A020A438461026261
:1032800010BD10B5036A23F0100303628369046A5A
:1032900023F4704343EA023224F0A00343EA01110D
:1032A0008261016210BD10B5806B0021C185C184AF
:1032B000FEF73EFF10BD01680C3151E8002F22F4EB
:1032C000907241E80023002BF5D10168143151E8D8
:1032D000002F22F0010241E80023002BF5D1016B01
:1032E000012909D101680C3151E8002F22F01002A8
:1032F00041E80023002BF5D1202180F83E10002169
:103300000163704708B590F83E10222901D00220D1
:1033100008BD82684FF480539A4201D1016921B1FE
:10332000816A9A421BD04AB10AE00268816A5268F7
:10333000C2F308020A80816A891C08E0026972B13E
:103340000268526802F07F020A70816A491C816239
:10335000C18D491E0904090CC18503D019E002681A
:103360005268F1E70168CA6822F02002CA60016869
:10337000CA6822F48072CA6001684A6922F00102B8
:103380004A61202180F83E10016B012903D0FFF72C
:10339000EDF9002008BD0021016301680C3151E8FE
:1033A000002F22F0100241E80023002BF5D1016824
:1033B0000A68D20602D50A6849680091818DFEF735
:1033C000B6FEE6E770B5044600680169E26821F4DC
:1033D0004051114301612169A068E26908436169B4
:1033E000114308432168CA6849F20C639A430243B7
:1033F000CA6020684169A26921F4407111434161AA
:1034000031492068884202D03049884202D1FEF713
:10341000EBF801E0FEF7D8F8E269002319216425F2
:103420003226B2F5004F626828D0A0FB0101930F4D
:103430009200FCF725FF0146B0FBF5F06FF0180293
:10344000504301EB800006EB0010B0FBF5F000F0FC
:10345000F002B1FBF5F002EB0012B1FBF5F06FF0FA
:103460001803584301EB800006EB0010B0FBF5F0A9
:1034700000F00F0021681044886070BDA0FB0101BE
:1034800092185B41FCF7FCFE0146B0FBF5F002012F
:10349000B1FBF5F06FF01803584301EB800006EB29
:1034A000C000B0FBF5F000F0F80002EB4002B1FB09
:1034B000F5F0584301EB800006EBC000B0FBF5F0DF
:1034C00000F00700D6E700000010014000140140A2
:1034D0000148FEF7ADBE0000680400200148FEF779
:1034E00029BE0000AC0400200148FEF723BE000006
:1034F000F0040020FEE7000030B50C46050014D0B3
:10350000022C12D90A48A11E02882846FDF704F8A9
:103510002919C2B211F8023C9A4206D111F8011CD5
:10352000B1EB102F01D1012030BD002030BD0000D3
:103530008800002030B50C4605000CD0022C0AD9BA
:10354000FF22611EFCF7FEFF291911F8011C8142C0
:1035500001D1012030BD002030BD0907090E00282F
:1035600004DB00F1E02080F80014704700F00F0049
:1035700000F1E02080F8141D704702E008C8121F17
:1035800008C1002AFAD170477047002001E001C14C
:10359000121F002AFBD1704700B58BB0002001211B
:1035A000CDE90601089100900190029003900590EA
:1035B000049069460C48FDF749F80B48FDF77CFB81
:1035C00002210948FCF7CCFF0E20099005906946BE
:1035D0000648FDF73BF80548FDF76EFB022103485E
:1035E000FCF7BEFF0BB000BDE80200201003002076
:1035F0002DE9F041DFF87C801F4C08F5407600276C
:10360000A6F50E752088414640440268C6F82B2076
:10361000027986F82F2095F86322A52A27D18846BB
:103620000521FFF787FF012821D1B5F86412228810
:10363000093108EB0200FFF75FFF012817D122884C
:1036400008EB0200B0F805303386A38018F802308A
:10365000C01D5B1C08F80230B5F864120932114431
:10366000618000F021F860882080C828CAD92780AE
:10367000BDE8F081664400208A000020012131EE7F
:10368000601A814070EE600A491E00EE101AB8EE12
:10369000C00A20EE800AC0EE010ABCEEE00A10EE7D
:1036A000100A80B27047000030B5C1498A88C1490C
:1036B000B2F5017F7ED060DCB2F5817F7BD017DC74
:1036C000032A79D006DC012A77D0022A01D10078BA
:1036D000C87230BD042A71D0A2F58072013AF8D1C7
:1036E0000278D0F8010042EA0020C1F82F0030BD76
:1036F00040F20125A2F20124AA4272D00ADCB2F5FE
:10370000827F6FD0A2F58072053AF0D1007881F8FF
:10371000390030BD012C75D0022CFAD110F8012BE4
:10372000036842EA032200EE102AB8EE400A10EEC7
:10373000102A41F8652FC278436842EA032200EE5E
:10374000102AB8EE400A10EE102A4A60C279836847
:1037500042EA032200EE102AB8EE400A10EE102AC8
:103760008A60C27AC06842EA002000EE100AB8EE11
:10377000400A10EE100AC86030BD40F20A25A2F2DD
:103780000A24AA4272D008DCA2F20522052AF3D24A
:10379000DFE802F0C0C4D0E6ED00F72C67D0F82CCB
:1037A000EAD0F92CE8D0FA2CE6D10288A1F8572209
:1037B000428804E0AAE04FE025E014E044E0A1F8EC
:1037C00059228288A1F85B22827981F85D22C27930
:1037D00081F85E220289A1F85F224089A1F8610286
:1037E00030BD4BE044E003780A7863F303020A70CB
:1037F00003781B0963F307120A70B0F80100A1F8FF
:103800000100EDE767E002888A814288CA818288E8
:103810000A82C2884A8202898A824289CA8282894D
:103820000A83C2894A83028A8A83428ACA83828A35
:103830000A84C28A4A84028B8A84428BCA84828B1D
:103840000A85C08B4885CBE7027881F82C20B0F838
:103850000100A1F82D00C3E7027801F8332F427868
:103860004A7082788A70C078C870B9E783E096E0C1
:10387000027801F8372F00784870B1E7027801F834
:103880003A2F42784A7042884A8082888A80C28869
:10389000CA8002890A8142894A8182898A81C289D1
:1038A000CA81028A0A82428A4A82828A8A82C28AB9
:1038B000CA82028B0A83837E8A7E63F300028A7641
:1038C000C37E5B0863F341028A76007F800860F361
:1038D00082028A7684E7028821F8552F42884A803E
:1038E000C27962F31F63827962F31743427962F30C
:1038F0000F23027962F307034B6002890A81428930
:103900004A8182898A81C089C88169E7007881F803
:10391000750065E7007881F8760061E7037811F8B3
:10392000772F63F303020A700078000960F307122F
:103930000A7055E7027801F8782F42784A70827849
:103940008A70827962F31F63427962F317430279C6
:10395000C07862F30F2360F30703C1F803303FE739
:10396000028821F87F2F42884A8080881DE00078F5
:10397000C1F8850034E7027801F8892F42784A704F
:1039800042884A8002790A7142794A7182798A7141
:10399000C279CA7102890A814089488120E7827907
:1039A00021F8952FC2794A80007A888018E70000B4
:1039B0008A0000202E450020FDF78AFCFFF7C0FAA0
:1039C000FFF7D4F8FFF780F8FFF728F8FFF758F96A
:1039D000FFF746F8FFF730F9FFF72CFAFFF746FA42
:1039E000FFF762FAFFF77EF9FFF7C8F9FFF75AF819
:1039F000FFF7D2FDFEF7E6FFFFF7A4F800F00EF8A0
:103A0000FEE701460020842900D0C81C704710B58D
:103A100000B9012000F038FB002010BD10B500F007
:103A200059FB002010BD7FB50D4604464169B0F931
:103A3000080081B1A16971B1FFF7E3FFD4E9051274
:103A40008DE80700D4E900102B46226900F055FCF0
:103A5000039004B070BDFFF7D4FF03A9CDE90001C6
:103A6000208A2B4682B2D4E9001000F019FC01280C
:103A700001D00020EDE70398EBE700002DE9F041CD
:103A8000184C0F460546E6682068001D00F034FA21
:103A900038B9206890F82C100120884021698143B2
:103AA0002161681C07D137B12168BDE8F0410E489B
:103AB000091D00F065BA20683544B54245602168AB
:103AC00005D2A06BBDE8F041091D00F041BA606B62
:103AD000091D00F03DFAA06A854200D2A562BDE84A
:103AE000F081000020000020380800202DE9F0417E
:103AF000054600F051FA2E4CA068401CA0602068DA
:103B00002C4F10B1606940B32DE02560A0680128FA
:103B100029D1002606EB860007EB800000F00AFAA8
:103B2000761C072EF6D323488C3000F003FA214888
:103B3000A03000F0FFF91F48B43000F0FBF91D4839
:103B4000C83000F0F7F91B48DC3000F0F3F91948F1
:103B50008C3060631430A06305E02068E96AC06AB5
:103B6000884200D82560606A401C6062E96A0120D2
:103B7000226988401043206101EB810007EB80003F
:103B8000291D00F0FDF900F027FA606900280CD02B
:103B90002068E96AC06A884207D207494FF080501E
:103BA0000860BFF34F8FBFF36F8FBDE8F081000057
:103BB000200000205C07002004ED00E010B5044662
:103BC00090F8510058B101280CD002280FD0502095
:103BD00080F31188BFF34F8FBFF36F8FFEE7206B29
:103BE00000F00EFA2046BDE8104000F009BA10BD02
:103BF00010484FF47051420706D0C01D0D4920F007
:103C00000700411AC1F570510B4A00230144C2E973
:103C100000030839183A21F0070111604B600B606E
:103C20000B1AC0E9001393604FF0004053605061DD
:103C3000704700004C08002074000020144E154C02
:103C4000A6F1C8074FF08058DFF84C9012E000BF93
:103C500000F0A2F9F068C568281D00F04DF9A068D1
:103C6000401EA0606068401E606000F0B5F9284604
:103C7000FFF7A4FF60680028EAD138680128F9D965
:103C8000C9F80080BFF34F8FBFF36F8FF2E70000DA
:103C9000240800202000002004ED00E02DE9F0477A
:103CA0009A46DDE9098481466FF00303206B03EB3C
:103CB00082021044089E20F00707780707D05020A2
:103CC00080F31188BFF34F8FBFF36F8FFEE700259E
:103CD00061B1002023180A5C83F834200A5C12B119
:103CE000401C1028F6D384F8435001E084F8345087
:103CF000072E00D30626E662C4E91165201D00F0F8
:103D000024F904F1180000F020F92461C6F107003D
:103D10006462A061E56484F85050524649463846D2
:103D200000F0C0F82060B8F1000F01D0C8F80040E2
:103D3000BDE8F08730B5114900E011460A688242BB
:103D4000FBD34B685C18844203D140681844486038
:103D5000084643681C18944209D1084C183C246852
:103D6000A24209D052681A4442600A68126802608E
:103D7000814200D0086030BD0460F9E77400002083
:103D80000648416B096829B1416BC968C96849682F
:103D9000816270474FF0FF31FAE7000020000020F9
:103DA00008484068401C4FF0500080F3118804D050
:103DB000BFF34F8FBFF36F8FFEE7BFF34F8FBFF39C
:103DC0006F8FFEE77C0000202DE9F04105460027BB
:103DD00000F0B6F9324E306808B9FFF709FF706994
:103DE00005424ED1C5B3083568070ED005F007006F
:103DF000C0F108000544680707D0502080F31188FF
:103E0000BFF34F8FBFF36F8FFEE72DB3706885420E
:103E100037D82348183001460C6801E020460C468C
:103E20006168A94202D221680029F7D131688C4229
:103E300027D007682168016060680837411B102996
:103E40000FD96019420708D0502080F31188BFF3C2
:103E50004F8FBFF36F8FFEE713E041606560FFF7A0
:103E600069FF61687068401A7060B268904200D261
:103E7000B060706901430020C4E90001F068401C93
:103E8000F06000F0CBFA780707D0502080F311885B
:103E9000BFF34F8FBFF36F8FFEE73846BDE8F08169
:103EA0005C00002010B5031F4FF080741C601B1FC6
:103EB00021F001011960191F044B0B6014390A60CD
:103EC000091F6FF0020244380A6010BDA13D0008CE
:103ED00001EE100A70EEC00A0120B8EEC11A884047
:103EE000401E21EE201A00EE900AF8EEE01AC1EE14
:103EF000210A30EE800A7047D0E9013201699A60E8
:103F0000D0E901235A604A68824201D182684A603E
:103F1000002202610868401E0860086870470000BF
:103F2000034B036003F15400086080201060704769
:103F30009400002000F108014FF0FF32C0E90112A7
:103F4000C16001610021016070470021016170477B
:103F500030B50B685A1C02D000F1080202E0026979
:103F600004E02246546825689D42FAD953684B60A4
:103F700099608A60516008610168491C016030BD28
:103F800042684A6093688B609368596091600861E9
:103F90000168491C01607047502080F31188BFF30D
:103FA0004F8FBFF36F8F0A494868401C4860012853
:103FB0000CD10848006810F0FF0F07D0502080F3A4
:103FC0001188BFF34F8FBFF36F8FFEE7704700007C
:103FD0007C00002004ED00E00849486828B1401E3C
:103FE000486001D180F311887047502080F3118818
:103FF000BFF34F8FBFF36F8FFEE700007C00002000
:1040000070B500282AD0164DA0F1080460686969CF
:10401000084207D1502080F31188BFF34F8FBFF3C0
:104020006F8FFEE722683AB1502080F31188BFF30A
:104030004F8FBFF36F8FFEE78843606000F080F81A
:1040400060686968084468602046FFF773FE286965
:10405000401C2861BDE8704000F0E0B970BD000070
:104060005C0000204FF0E0200021016181610549E2
:104070004FF47A720968B1FBF2F1491E41610721E0
:10408000016170471C00002010B5020014D00F48D9
:10409000006B38B1502080F31188BFF34F8FBFF30E
:1040A0006F8FFEE700F04CF800211046FFF7E6FCAA
:1040B00000F0B4F9002807D105494FF0805008609E
:1040C000BFF34F8FBFF36F8F10BD000020000020A3
:1040D00004ED00E010B586B00024039405AA04A9FD
:1040E00003A80494FFF71CFFDDE903010094CDE968
:1040F000011000230EA11048059A00F0FEF80F49A8
:104100000028C86211D0502080F31188BFF34F8F70
:10411000BFF36F8F4FF0FF30886201204861CC60A1
:1041200006B0BDE8104000F041B806B010BD000078
:1041300049444C45000000003D3C000820000020A0
:104140000248016B491C01637047000020000020F9
:104150001448016B11B10121C16170470021C16197
:104160000169B1FA81F1C1F11F0101EB81020E4930
:1041700051F822306BB101EB820101F108034A686A
:1041800052684A609A4201D152684A60D16801601F
:104190007047502080F31188BFF34F8FBFF36F8FAC
:1041A000FEE70000200000205C0700201CB5374817
:1041B0000168374A914207D1502080F31188BFF33C
:1041C0004F8FBFF36F8FFEE700683149491E884269
:1041D00007D1502080F31188BFF34F8FBFF36F8F4B
:1041E000FEE72C4908780190FF20087008788DF8C8
:1041F00000009DF800009DF8002000F0F0009042C3
:1042000007D0502080F31188BFF34F8FBFF36F8F1B
:10421000FEE79DF80000204C00F0500020700720C1
:10422000A06005E09DF8002052008DF80020401E9F
:104230009DF800201206F5D4A060032807D0502076
:1042400080F31188BFF34F8FBFF36F8FFEE74FF4FA
:104250004070A060019808700C482030016841F45B
:1042600070010160016841F070410160FFF7FAFEE2
:1042700000206060FBF7B6FF0848016841F040414C
:104280000160FBF79BFF00201CBD000000ED00E07B
:1042900071C20F4100E400E07C00002034EF00E038
:1042A0002DE9FF5F8346DDE90E87994616468A466B
:1042B0009000FFF789FD05001CD05420FFF784FD16
:1042C000040014D00020256384F85100CDE9024099
:1042D000CDE900874B46324651465846FFF7DEFC93
:1042E0002046FFF703FC012004B0BDE8F09F2846FC
:1042F000FFF786FE4FF0FF30F6E7F0B585B0DDE959
:104300000B640A9DA6B1DCB15427009726630226F0
:1043100084F85160002604AFCDE90246CDE900578C
:10432000FFF7BCFC2046FFF7E1FB049805B0F0BDA9
:10433000502080F31188BFF34F8FBFF36F8FFEE7DC
:10434000502080F31188BFF34F8FBFF36F8FFEE7CC
:104350002DE9F0412F4C0026206B28B1A069401CAC
:10436000A0613046BDE8F081E5686D1CE56013D1C1
:10437000606B006838B1502080F31188BFF34F8F15
:10438000BFF36F8FFEE7606BA16B6163A063206A70
:10439000401C2062FFF7F4FCA06ADFF87C808542B5
:1043A00009D3606B0068A0B1606BC068C7687868AB
:1043B000854211D2A0622068C06A00EB800158F8E3
:1043C0002100012800D90126E0690028C9D0012672
:1043D000C7E74FF0FF30EDE7381DFFF78DFDB86AF6
:1043E00018B107F11800FFF787FDF96A012022696B
:1043F00088401043206101EB810108EB8100391DE9
:10440000FFF7BEFDF86A2168C96A8842C9D3012650
:10441000C7E70000200000205C0700202DE9F047DE
:104420002C4D00242746286B38B1FFF7B5FD286BCB
:10443000401E2863286B40B146E0502080F311886D
:10444000BFF34F8FBFF36F8FFEE7A968224E0120A5
:10445000D1B3A6F1B40980463068E8B1F068C46809
:1044600004F11800FFF748FD201DFFF745FDE06A45
:104470002A6908FA00F11143296100EB800109EB78
:104480008100211DFFF77CFDE06A2968C96A884226
:10449000E2D3C5F81C80DFE70CB1FFF771FCAC6913
:1044A00044B14646FFF754FF00B1EE61641EF9D1F6
:1044B0000020A861E86938B1084901273807086079
:1044C000BFF34F8FBFF36F8FFFF786FD3846BDE810
:1044D000F0870000200000201008002004ED00E01C
:1044E0001C480008E52E0008000000000000000045
:1044F0008000000000000000000000000006101610
:104500000006101600000000000000000102030475
:10451000060708090000000001020304005EBCE277
:10452000613FDD83C29C7E20A3FD1F419DC3217F8F
:10453000FCA2401E5F01E3BD3E6082DC237D9FC183
:10454000421CFEA0E1BF5D0380DE3C62BEE0025C77
:10455000DF81633D7C22C09E1D43A1FF4618FAA463
:1045600027799BC584DA3866E5BB5907DB8567394F
:10457000BAE406581947A5FB7826C49A653BD98743
:10458000045AB8E6A7F91B45C6987A24F8A6441A37
:1045900099C7257B3A6486D85B05E7B98CD2306E23
:1045A000EDB3510F4E10F2AC2F7193CD114FADF30F
:1045B000702ECC92D38D6F31B2EC0E50AFF1134D03
:1045C000CE90722C6D33D18F0C52B0EE326C8ED0F7
:1045D000530DEFB1F0AE4C1291CF2D73CA947628E3
:1045E000ABF517490856B4EA6937D58B5709EBB5CF
:1045F00036688AD495CB2977F4AA4816E9B7550BC3
:1046000088D6346A2B7597C94A14F6A8742AC896B6
:10461000154BA9F7B6E80A54D7896B350000891104
:1046200012239B322446AD573665BF74488CC19D1A
:104630005AAFD3BE6CCAE5DB7EE9F7F881100801FA
:1046400093331A22A5562C47B7753E64C99C408DFA
:10465000DBBF52AEEDDA64CBFFF976E802218B3096
:10466000100299132667AF763444BD554AADC3BCDA
:10467000588ED19F6EEBE7FA7CC8F5D983310A20BA
:1046800091121803A7772E66B5543C45CBBD42ACBA
:10469000D99E508FEFFB66EAFDD874C904428D5352
:1046A00016619F702004A9153227BB364CCEC5DF9A
:1046B0005EEDD7FC6888E1997AABF3BA85520C437A
:1046C00097711E60A1142805B3373A26CDDE44CF7A
:1046D000DFFD56ECE9986089FBBB72AA06638F7216
:1046E00014409D512225AB343006B9174EEFC7FE5A
:1046F0005CCCD5DD6AA9E3B8788AF19B87730E623A
:1047000095501C41A3352A24B1163807CFFF46EE39
:10471000DDDC54CDEBB962A8F99A708B08848195E1
:104720001AA793B62CC2A5D33EE1B7F04008C91929
:10473000522BDB3A644EED5F766DFF7C89940085E9
:104740009BB712A6ADD224C3BFF136E0C118480909
:10475000D33B5A2AE55E6C4FF77D7E6C0AA583B485
:10476000188691972EE3A7F23CC0B5D14229CB38E9
:10477000500AD91B666FEF7E744CFD5D8BB502A4A9
:1047800099961087AFF326E2BDD034C1C3394A28C9
:10479000D11A580BE77F6E6EF55C7C4D0CC685D741
:1047A0001EE597F42880A1913AA3B3B2444ACD5BA9
:1047B0005669DF78600CE91D722FFB3E8DD604C769
:1047C0009FF516E4A9902081BBB332A2C55A4C4B89
:1047D000D7795E68E11C680DF33F7A2E0EE787F605
:1047E0001CC495D52AA1A3B03882B193466BCF7A69
:1047F0005448DD59622DEB3C700EF91F8FF706E629
:104800009DD414C5ABB122A0B9923083C77B4E6A48
:10481000D5585C49E33D6A2CF11E780F64656661EA
:10482000756C745461736B004848000800000020E8
:10483000940000007A350008DC480008940000204D
:10484000444B00008A350008000000000000000012
:104850000000000000000000010000001000000047
:10486000000000000024F400000000000000000030
:104870000000000000000000000000000000000038
:104880000000000000000000000000000000000028
:104890000000000000000000000000000000000018
:1048A0000000000000000000000000000000000008
:1048B00000000000000000000000000000000000F8
:1048C0000000000000000000AAAAAAAA0000000040
:0C48D000FFFF00000000000000000000DE
:040000050800018965
:00000001FF
